:020000040800F2
:10000000984800205D020008172D00088B2A000880
:10001000152D0008C10F00089533000800000000EE
:100020000000000000000000000000009D0100082A
:100030008D10000800000000F9010008492D00089B
:1000400077020008770200087702000877020008AC
:10005000770200087702000877020008770200089C
:10006000770200087702000877020008C50F000831
:10007000D10F000877020008770200087702000815
:10008000770200087702000877020008770200086C
:10009000770200087702000877020008770200085C
:1000A00077020008112E0008770200087702000886
:1000B0001D2E000877020008292E0008770200088C
:1000C000770200087702000877020008770200082C
:1000D0007702000877020008770200087D330008E5
:1000E000770200087702000877020008770200080C
:1000F00077020008770200087702000877020008FC
:100100007702000877020008412E000877020008F5
:10011000770200081D300008592E000877020008F9
:100120007702000877020008DD0F00087702000858
:1001300077020008000000000000000077020008BD
:1001400077020008770200087702000877020008AB
:100150007702000877020008770200088933000858
:10016000770200087702000877020008770200088B
:10017000770200087702000800000000000000007D
:100180007702000877020008DFF80CD000F0B0FC1E
:1001900000480047793F0008984800202C4B196818
:1001A0000868B0E8F04F80F30988BFF36F8F4FF015
:1001B000000080F3118870470000000008480068C4
:1001C000006880F308884FF0000080F3148862B65E
:1001D00061B6BFF34F8FBFF36F8F00DF00BF00BF6B
:1001E00008ED00E0DFF80C00016841F470010160E7
:1001F000704700BF88ED00E0EFF30980BFF36F8F19
:10020000134B1A681EF0100F08BF20ED108A20E96A
:10021000F04F106009B44FF0500080F31188BFF325
:100220004F8FBFF36F8F04F0E9FC4FF0000080F3B5
:10023000118809BC19680868B0E8F04F1EF0100F6B
:1002400008BFB0EC108A80F30988BFF36F8F704746
:1002500058000020EFF305807047000006488047F3
:1002600006480047FEE7FEE7FEE7FEE7FEE7FEE79B
:10027000FEE7FEE7FEE7FEE7F52D0008890100082E
:100280002DE9F05F0546002092469B4688460646CB
:10029000814640241BE0284641464746224600F05E
:1002A00024FA53465A46C01A914110D311461846B3
:1002B000224600F00BFA2D1A67EB01084F46224642
:1002C0000120002100F002FA17EB00094E41201E28
:1002D000A4F10104DFDC484631462A464346BDE826
:1002E000F09F40EA01039B0703D009E008C9121FF1
:1002F00008C0042AFAD203E011F8013B00F8013BE0
:10030000521EF9D27047D2B201E000F8012B491E0B
:10031000FBD270470022F6E710B513460A460446A2
:100320001946FFF7F0FF204610BD30B505462A46B6
:100330000B4612F8010B13F8014B08B1A042F8D09C
:100340001CB1002802D06D1CF1E7284630BD421CCC
:1003500010F8011B0029FBD1801A704730B5054603
:100360000020034600E05B1C934205D2EC5CC85CB5
:10037000201A01D1002CF6D130BD00000FB400B519
:100380008DB010A909900B9000914FF0FF300A90AA
:1003900000200C9005480690054807906A4609A879
:1003A0000F9900F0C7F90DB05DF814FB5107000874
:1003B0006F0700082DE9FF5F1D464FF0FF3BD5E9B1
:1003C000014691465F464FF00008A9697F1C0198DD
:1003D0008847296A824688470028F6D1BAF1FF3F4C
:1003E0000CD024F4C064002E19DD600614D5BAF1D7
:1003F0002B0F09D0BAF12D0F0ED103E0584604B0EF
:10040000BDE8F09F44F48064A9697F1C0198884787
:10041000761E8246002E02DDBAF1300F03D0B9F10C
:10042000000F26D032E0A969761E44F400747F1CC8
:10043000019888478246002E05DDBAF1780F06D074
:10044000BAF1580F03D0B9F1000F10D01EE0B9F186
:10045000000F02D0B9F1100F18D1A969761E24F44B
:1004600000747F1C019888478246102002E0082013
:1004700000E00A20814609E008FB0908A969761E08
:1004800044F400747F1C019888478246002E05DDE5
:100490004946504600F039F90028EDDAE96901983B
:1004A0008847A00502D46FF00100A8E7E00725D136
:1004B000600613D5600502D5C8F1000000E0404693
:1004C00029680A1D2A600968220501D5087015E00F
:1004D000220701D5088011E008600FE02868011D9F
:1004E00029600068210502D580F8008006E0210718
:1004F00002D5A0F8008001E0C0F8008038467EE711
:100500002DE9FE4F81EA030404F0004421F000418C
:1005100000944FF0000B23F0004350EA01045ED03A
:1005200052EA03045BD0C3F30A54C1F30A552C44C6
:10053000A4F2F3340194A0FB0254C1F3130141F47B
:100540008011C3F3130343F4801301FB024400FB47
:10055000034E840A970A44EA815447EA8357A4FB6E
:10056000076802958D0A05FB07854FEA932C04FB6B
:100570000C542705029D4FEA065847EA1637B5EB9B
:1005800008056EEB070C870E920E47EA811742EAC8
:100590008312A7FB0201B6EB0B0164EB00042B0DE9
:1005A00043EA0C335E1844EB1C50DA465146E7FB35
:1005B0000201C5F313044FEA0B3343EA14534FEA25
:1005C0000432019C43EA0603A4F10C040294009C4B
:1005D000CDE900B400F022F903B0BDE8F08F0020AF
:1005E0000146F9E70EB540F2334102910021CDE911
:1005F00000110A460B4600F011F903B000BD70B5BA
:10060000C1F30A5201F000450024C1F3130140F286
:10061000FF3341F480119A4201DA002070BD40F2AC
:1006200033439A42A2F2334203DC524200F05DF8B7
:1006300000E090402C43F1D0404270BDC1F30A521B
:1006400010B5C1F3130140F2FF3341F480119A4217
:1006500001DA002010BD40F233439A42A2F2334245
:1006600003DC524200F041F810BD904010BD00F094
:10067000004230F000400AD0C10D01F56071C0F3B6
:10068000160042EA0151C20840071143704700209A
:100690000146704701F0004330B421F0004150EAB8
:1006A000010206D00A0DA2F56072C1F31301002AFF
:1006B00002DC30BC00207047440F44EAC104C10092
:1006C000E01830BC00EBC25000F062B8202A04DB16
:1006D000203A00FA02F1002070479140C2F1200355
:1006E00020FA03F3194390407047202A04DB203A94
:1006F00021FA02F00021704721FA02F3D040C2F142
:10070000200291400843194670473A2800D23038F9
:1007100020F02002412A01D3A2F13700884201D300
:100720004FF0FF30704700000268114413780160F9
:1007300018467047D1600449516104491162002193
:100740001161114600F0FEB929070008390B0008B5
:10075000426842B1016811F8013B23B1521EC0E961
:100760000012184670470121C160881E7047426818
:100770005AB1C368016843B983688B4205D0491EEA
:10078000521CC0E90012002070474FF0FF30704744
:100790000029A8BF7047401C490008BF20F0010095
:1007A000704710B4B0FA80FC00FA0CF050EA010473
:1007B00004BF10BC704749B1CCF1200421FA04F405
:1007C00011FA0CF118BF012121430843A3EB0C01DE
:1007D000CB1D4FEA00614FEA102042BF002010BC41
:1007E000704700EBC35010440029A4BF10BC7047F1
:1007F000401C490008BF20F0010010BC704710B534
:10080000141E73F1000408DA401C41F10001921833
:100810005B411A4301D120F0010010BD2DE9F04DDC
:1008200092469B4611B1B1FA81F202E0B0FA80F231
:1008300020329046FFF74AFF04460F4640EA0A007E
:1008400041EA0B0153465A46084313D0114653EA76
:10085000010019D0C8F140025046FFF746FF054697
:100860000E46504659464246FFF730FF084305D032
:10087000012004E020463946BDE8F08D0020054304
:1008800046EAE0762C4337430A986305E40AA0EB76
:1008900008000022FD0A44EA47540A3002D500202D
:1008A0000146E9E7010510196941DDE9084500192C
:1008B0006941BDE8F04DA2E72DE9FE4F804681EA8F
:1008C0000300C00F0C46009021F0004123F00045CA
:1008D000B8EB0200A94105D24046214690461C468D
:1008E0000B46024623F00040104347D0270DC7F3C4
:1008F0000A00C3F30A510290401A019040286BDAB3
:10090000C3F3130040F4801B0098924620B10023EB
:10091000D2EB030A63EB0B0B01985946C0F140027E
:100920005046FFF7D3FE06460D4650465946019AFB
:1009300000F0F0F810EB08006141002487EA115242
:1009400084EAE7731A4340D0009A62B3019A012AFD
:100950004FEA075215DC001B61EB02014FF0004229
:1009600002EA0752CDE90042001C41F580113246EF
:100970002B46FFF753FF03B0BDE8F08F40462146FA
:10098000F9E7001B61EB0201001C41F58013001820
:100990005B412018A2F5001747EB030140EAD57030
:1009A000B6196D4111E06D084FEA360645EAC0758B
:1009B0004FEA0752001B61EB0201001C41F5801158
:1009C00049084FEA30000019514132462B4603B026
:1009D000BDE8F04FFFF713BF00980122400000234D
:1009E000D0EB020263EBE073009821464FEAE0741B
:1009F000B8EB000061EB0401E9E783F000435BE73B
:100A000081F0004158E700002DE9F041054621F052
:100A100000400C46284309D0C4F30A5040F2334149
:100A2000884205DD28462146BDE8F0812846FBE7DF
:100A300040F2FE31884210DC0CDB4FEA043040EA21
:100A4000155050EA053105D0104804F0004101432B
:100A50000020E9E700200146E6E7A0F233404642E5
:100A6000C6F1400228462146FFF730FE0746884679
:100A7000284621463246FFF738FE43463A46FFF7FE
:100A8000BEFE3246BDE8F041FFF720BE0000F03F59
:100A900030B5041E71F1000404DB4FF00044404205
:100AA00064EB0101141E73F1000405DB1C464FF0DA
:100AB0000043524263EB04038B4208BF824230BDC5
:100AC00030B5041E71F1000404DB4FF000444042D5
:100AD00064EB0101141E73F1000405DB1C464FF0AA
:100AE0000043524263EB0403994208BF904230BD79
:100AF000064C074D06E0E06840F0010394E807006B
:100B000098471034AC42F6D3FFF742FBC8500008B8
:100B1000E8500008202A06DBCB17203A41FA02F001
:100B200043EAE07306E041FA02F3D040C2F120024A
:100B30009140084319467047C0B24FF4F05100F09D
:100B400097B900002DE9F34F8BB04FF0000801F189
:100B50000C000C464FF0010B46460DF1080A0190BF
:100B60006269012101989047051E2DD0252D2CD0BA
:100B7000216A8847C0B16269012101989047216AC2
:100B800088470028F7D1411E62690198904700E02C
:100B9000761CA1690B988847216A88470028F7D1FD
:100BA000E1690B988847DBE7A1690B9888470746FE
:100BB000A84201D1761CD3E7E1690B9888477F1CD6
:100BC00002D1B8F1000F6FD046E1002762693D46BF
:100BD0003946019890472A2804D162690121019879
:100BE00090470125DFF884926269012101989047BE
:100BF000A0F130010A290AD24F45E5DC07EB870155
:100C000000EB4107303FDFD445F01005ECE7E90683
:100C100001D46FF000476C280AD04C2814D0682803
:100C200015D06A280DD074281CD07A281AD01DE05F
:100C300062690121019890476C2802D045F00405B3
:100C400014E045F002050DE045F020050AE0626978
:100C5000012101989047682802D045F0080505E079
:100C600045F400656269012101989047C4E9015784
:100C700065283DD019DC58287AD00CDC452837D0BF
:100C800004DC252826D0412831D131E046282FD058
:100C900047282CD12CE05B2877D0612828D0632806
:100CA0007CD0642823D15AE0D0E06F2848D008DCFB
:100CB00066281DD067281BD0692821D06E2816D140
:100CC00027E0702845D0732868D0752847D0782849
:100CD0000DD14DE0A1690B988847054625283FF4C2
:100CE00069AFE1690B9888476D1C3FF46AAFB3E0C8
:100CF00023466A466FF001000B99AFF300809EE037
:100D000045F040006060A80723464FF0000236D44B
:100D10003EE0E8077FF447AF2068011D21600068CE
:100D2000290501D506701BE7290701D5068017E7BD
:100D3000A90703D5F117C0E9006111E706600FE7C5
:100D400045F040006060A80723464FF0080216D423
:100D50001EE040F60E0125EA0100606016E045F055
:100D600040006060A80723464FF00A0207D40FE056
:100D700045F040006060A80708D5234610226FF0B8
:100D800001000B99AFF3008059E007E023461022E1
:100D90006FF001000B99FFF70DFB50E04FF00009D9
:100DA0004F464B46632802D05B2806D040E0E80659
:100DB00001D40120A06001273AE062690121019875
:100DC00090475E2805D14FF00109626949460198B4
:100DD0009047216939B900210A46534643F821203A
:100DE000491C0829FADBB0B3216969B9C11700EBC6
:100DF000D16253110AEB830122F01F02821A0120F3
:100E00000B68904003430B60626901210198904791
:100E10005D28E8D1B9F1000F09D00020514651F802
:100E20002020D24341F82020401C0828F7DB02ABE9
:100E3000224600976FF001000B99AFF30080002865
:100E40000CDA401C08D1BBF1000F05D04FF0FF3089
:100E50000DB0BDE8F08FFFE74046F9E7E90701D1A3
:100E600008F1010806444FF0000B79E6CCCCCC0C1D
:100E70007F2801D9002208E0064A02EB5002C00791
:100E8000127800D1120902F00F02012090400840B0
:100E90007047000074500008464910B54A6822F4B3
:100EA00040324A604A6843681A434A6001684A68A7
:100EB00022F480724A6001684A68036942EA0322A8
:100EC0004A6001684A6822F040724A6001684A68D4
:100ED00083681A434A6001688A6822F400628A6063
:100EE00001688A68C3681A438A60816A6FF0706219
:100EF000D14201688A6822F070628A6001688A685B
:100F00000CD0836A1A438A6001688A6822F04052D2
:100F10008A6001688A68C36A1A4301E022F040527D
:100F20008A6001688A6822F002028A6001688A6821
:100F3000037E42EA43028A6090F82010002901688B
:100F40004A680FD042F400624A6001684A6822F49D
:100F500060424A6001684A68174C436A04EB4333B5
:100F60001A4301E022F400624A600168CA6A22F46E
:100F70007002CA620168CA6A838B104C04EB035387
:100F80001A43CA6201688A6822F400728A600168A2
:100F90008A6890F8303042EA43228A6001688A68A1
:100FA00022F480628A6001688A68406942EA80208F
:100FB000886010BD0023014000E0FFFF0000F0FF4B
:100FC000FEE70000014800F057BA0000F4030020DB
:100FD000014800F051BA000054040020014800F01C
:100FE0004BBA0000B404002001681823CAB2103ABA
:100FF000B2FBF3F2054B6FF30901032A9B5CC36557
:1010000000D9091D8165084670470000545000084A
:1010100010B5014600208B698A6A4FF0C07453B145
:10102000B3F5005F15D072B1012A0CD0022A0AD0A4
:10103000032A09D104E01AB1012A06D0022A03D1F9
:10104000C96AC90100D5012010BDC96AA142FAD000
:1010500010BD002AF7D0012AF2D0022AF3D0032AC9
:10106000F3D010BD30B50468256825F480252560CF
:10107000046863608368402B036803D0996000684C
:10108000C26030BD9A600068C16030BD7047704773
:1010900078B50024009490F83C20012A19D0012250
:1010A00080F83C200A6807230568092A13D9EE68EE
:1010B0000A3A02EB420293409E43EE600B788A6844
:1010C0000A3B03EB43039A400368DD682A43DA6076
:1010D00010E0022078BD2E6902EB420293409E434D
:1010E0002E610B788A6803EB43039A4003681D69FD
:1010F0002A431A614A681F23072A13D205686E6BB8
:10110000521E02EB820293409E436E630B790A8863
:101110005B1E92B203EB83039A4003685D6B2A4324
:101120005A6327E005680D2A12D22E6BD21F02EBFC
:10113000820293409E432E630B790A88DB1F92B292
:1011400003EB83039A4003681D6B2A431A6311E083
:10115000EE6A0D3A02EB820293409E43EE620B79F7
:101160000A880D3B92B203EB83039A400368DD6A61
:101170002A43DA62164B0568144A9D4206D10D686F
:10118000122D03D1556845F48005556005689D42D0
:1011900018D10B68102B01D0112B13D1536843F4D5
:1011A00000035360096810290CD10A490A4A0968EA
:1011B000B1FBF2F101EB8101490000E0491E009111
:1011C0000029FBD180F83C40002078BD002301407D
:1011D000002001405400002040420F0070B5040080
:1011E0004FF0000503D0206C002610B107E001206D
:1011F00070BD204600F01CF8666484F83C60206CEA
:10120000C00610D4206C20F4885040F00200206406
:101210002046FFF741FE6664206C20F0020040F09B
:101220000100206400E0012584F83C60284670BD80
:1012300010B586B0044614216846FFF76BF81149D3
:10124000206888421CD110480021026842F4807254
:101250000260006800F4807005900B481438026842
:1012600042F001020260006800F001000590C02019
:1012700000900320CDE901016946044800F080FA9E
:1012800006B010BD0020014044380240000002407A
:10129000704770B54379012B1AD00126467102239D
:1012A000037105682C6840F6FE7393409C43D1E9B6
:1012B00000310B43934023432B6001680B68C0242B
:1012C0009440A3430B60067100214171084670BD34
:1012D000022070BD704770B504460068416B4FF046
:1012E000040589040ED52571216941F001012161B0
:1012F000E90241632068016821F4805101602046C1
:10130000FFF7E8FF2068416B890011D5257121693D
:1013100041F0020121614FF00051416320680168F2
:1013200021F0805101602046BDE87040FFF7B0BF5A
:1013300070BD70B5040003D02079002510B105E020
:10134000012070BD6571204600F008F80220207170
:10135000256101202071002070BD000010B586B00D
:10136000044614216846FEF7D5FF154920688842D7
:1013700024D114480021026842F000520260006843
:1013800000F0005005900F481038026842F001024A
:101390000260006800F001000590302000900320FA
:1013A000CDE901016946084800F0EAF9002211463A
:1013B000362000F057FB362000F046FB06B010BD8B
:1013C00000740040403802400000024018B5046834
:1013D00000940068104421B1143000900360002094
:1013E00018BD0830F9E730B54279012A16D001223C
:1013F00042710223037103681D6802FA01F4254358
:101400001D60002901680B680AD00C6803F4802372
:1014100004F46014B3F5802F0FD015E0022030BD26
:101420000C6803F0040304F03804042B0CD1382CAE
:101430000AD14B6843F0010305E0B4F5601F03D106
:101440004B6843F002034B60027100214171084672
:1014500030BD90F83510022903D08021416501206C
:101460007047052180F835100068016821F00101FE
:1014700001600020704700002DE9F84304464FF05A
:101480000009CDF8009063484FF41651A56D00682F
:10149000B0FBF1F72E6894F85C10082000FA01F117
:1014A00031420FD021680A6852070BD50A6822F032
:1014B00004020A6094F85C108840A860606D40F0F7
:1014C0000100606594F85C104FF0010808FA01F023
:1014D000304208D021684969090604D5A860606DCA
:1014E00040F00200606594F85C10042088403042AF
:1014F00008D021680968890704D5A860606D40F0AC
:101500000400606594F85C1010208840304218D0C8
:1015100021680968090714D5A86020680168490393
:1015200004D50068000308D5A16C07E00168C9056F
:1015300003D4016821F008010160216C09B1204643
:10154000884794F85C1020208840304231D02168D0
:101550000968C9062DD5A86094F8350005282068CB
:10156000016806D0490347D5006800031DD4616CAB
:101570001CE021F0160101602068416921F0800122
:101580004161206C08B9A06C20B12068016821F08D
:101590000801016094F85C103F208840A86084F83E
:1015A000349084F83580216D1FE0E16B09B120464D
:1015B0008847606D00282BD0606DC00714D00520CF
:1015C00084F835002068016821F00101016000986D
:1015D000401C0090B84203D820680068C007F6D1CC
:1015E00084F8349084F83580E16C002910D001B083
:1015F0002046BDE8F04308470168C905D5D4016815
:1016000021F01001016084F8349084F83580CCE733
:10161000BDE8F883540000202DE9F041044600F0B5
:1016200095F906465CB1002584F83450022084F810
:1016300035002068016821F0010101600DE0012002
:10164000BDE8F08100F082F9801B052805D9202033
:101650006065032084F83500F2E720680068C00761
:10166000F0D12268116820480140D4E901031843F1
:10167000D4E903363343184363691843A369184315
:10168000E3691843236A18430843616A042903D1B4
:10169000D4E90B1319430843106020684069666A57
:1016A00020F0070130460E43012704280CD1A06A20
:1016B0000643E06A40B12046FFF7AAFC20B1402073
:1016C000606584F83570BAE7206846612046FFF708
:1016D0008BFC94F85C203F2191408160656584F823
:1016E00035700020ACE700003F8010F02DE9F0419C
:1016F0000446866D90F83400002501280DD00120A5
:1017000084F8340094F835700020012F07D084F855
:10171000340002252846BDE8F0810220FBE70227BD
:1017200084F8357060652046FFF79CFC94F85C10E7
:101730003F208840B0602068016841F016010160D8
:10174000206C20B12068016841F008010160206828
:10175000016841F001010160DCE7000070B504465A
:1017600000F0F4F80546601C02D0044800780444F8
:1017700000F0ECF8401BA042FAD370BD48000020F6
:101780002DE9F84F00224FF0010803254FF00F0E0E
:101790000B6808FA02F42340A3426ED14E68012E72
:1017A00005D0022E03D0112E01D0122E12D1866840
:1017B0004FEA420C05FA0CF7BE43CF6807FA0CF764
:1017C000374387604668A6430C79C4F300149440FD
:1017D00034434460C668570005FA07FC8C6826EA63
:1017E0000C06BC403443C4604C68022C01D0122C5F
:1017F00013D1D40800EB8404A346D4F820905407F6
:101800004FEAD46A0EFA0AF629EA06090E6906FAC0
:101810000AF646EA0906CBF8206006680C7926EA43
:101820000C0604F00304BC40344304604C68E4003C
:1018300065D5364C266846F480462660246822F03A
:10184000030604F480440094314C3444A446D4F894
:1018500008489607370F0EFA07F6B4432D4EB042EC
:1018600001D1002624E02C4EB04201D101261FE018
:101870002A4EB04202D102261AE040E0284EB04281
:1018800001D1032614E0274EB04201D104260FE017
:10189000254EB04201D105260AE0244EB04201D1C6
:1018A000062605E0224EB04201D1072600E00826B8
:1018B000BE402643CCF808681E4E34684F689C43EF
:1018C000FF0300D51C4334601A4C241D26684F6862
:1018D0009E43BF0300D51E432660164E083634686B
:1018E0004F689C43FF0200D51C433460114E0C36F8
:1018F00034684F689C43BF0200D51C433460521CBF
:10190000102AFFF445AFBDE8F88F000044380240CC
:101910000030014000000240000402400008024084
:10192000000C024000100240001402400018024067
:10193000001C0240003C01400069084000D001202A
:1019400070470AB1816170470904FBE7014880686C
:101950007047000048000020024881680278114466
:1019600081607047480000200B4810B5016841F4C1
:1019700000710160016841F480610160016841F417
:1019800080710160032000F08DF8002000F006F85F
:1019900000F03EF8002010BD003C024010B50146AA
:1019A00088B00022192000F05DF8192000F04CF8F2
:1019B00013480024016841F400310160006805A962
:1019C00000F400300690684600F018F900F046F97F
:1019D0000C490D4AB0FBF1F10C48491E026040F27F
:1019E000E732C0E90324C0E9011400F065FB10B13F
:1019F000012008B010BD054800F0ECFBF9E700003D
:101A00004438024040420F00004401406807002073
:101A10000C4882B0016841F480410160006800F424
:101A2000804000900748001F016841F0805101602C
:101A30000068002200F0805000900F21901E02B03C
:101A400000F010B844380240002809DB00F01F0203
:101A5000012191404009800000F1E020C0F8001110
:101A600070470000F0B40E4B1B680C46C3F3022312
:101A7000C3F10705042D00D90425191D072901D23A
:101A8000002300E0DB1E012606FA05F1491E214075
:101A900099409E40761E16403143F0BC01F090BC48
:101AA0000CED00E0064900F0070208684FF6FF035E
:101AB000184040EA0220034A1043086070470000C3
:101AC0000CED00E00000FA052DE9F0470E46050098
:101AD00065D0DFF81481D8F80000F7B200F00F00ED
:101AE000B04207D288F80070D8F8000000F00F006C
:101AF000B04254D128683D4C810712D5400703D528
:101B0000206840F4E05020602878000703D5206862
:101B100040F4604020602068A96820F0F00008438D
:101B200020602878C0072DD030496868083901281E
:101B300012D0022813D0032811D009688907002980
:101B40002DDA216821F0030101432160FFF7FEFE39
:101B5000814641F2883A0EE009688903EFE7096897
:101B60008901ECE7FFF7F2FEA0EB0901514502D92C
:101B70000320BDE8F0872068696800F00C00B0EB36
:101B8000810FEFD1D8F80010404601F00F01B142AB
:101B900007D90770006800F00F00B04201D00120A3
:101BA000E7E72878400705D52068E96820F4E05089
:101BB000084320602878000706D52068296920F4AA
:101BC000604040EAC100206000F058F82168084AEF
:101BD000C1F30311515CC84006490860064800681B
:101BE000FFF7DCFE0020C4E7003C0240083802405A
:101BF0005C500008540000204C0000200F220260BE
:101C00000C4A136803F003034360136803F0F00306
:101C10008360136803F4E053C36012684FF4E05329
:101C200003EAD20202610448006800F00F00086075
:101C30007047000008380240003C02400448054953
:101C400000680968044AC1F38221515CC8407047AA
:101C500054000020083802406C5000080448054930
:101C600000680968044AC1F34231515CC8407047BA
:101C700054000020083802406C500008104810B58D
:101C8000006810F00C010F4818D0042916D008295C
:101C900014D10B4C241F216801F03F0221682168F8
:101CA0000023C1F38811A1FB0001FEF7E9FA2168C6
:101CB000C1F30141491C4900B0FBF1F010BD000027
:101CC000083802400024F4002DE9F84F04006ED0DB
:101CD0002078DFF83C93C007A9F104054AD009F148
:101CE00004000168C1F38101012908D00068C0F334
:101CF000810002280AD1D9F80000400206D52868E0
:101D0000800337D560680028E1D033E06068B0F523
:101D1000803F10D0B0F5A02F286810D020F480307C
:101D20002860286820F4802028606068A8B1FFF748
:101D30000DFE06460DE0286840F48030F4E740F4DC
:101D400080202860F7E700BFFFF700FE801B6428B3
:101D500073D828688003F7D50CE0FFF7F7FD064637
:101D600005E000BFFFF7F2FD801B6428F0D828686B
:101D70008003F7D42078DFF89C8280074FF0000AB8
:101D80003ED5A348001D016811F00C0F08D0006873
:101D9000C0F3810002280BD1D9F80000400207D41B
:101DA0002868800716D5E068012800D112E02BE1F1
:101DB000E068B8B10120C8F80000FFF7C7FD06468B
:101DC00005E000BFFFF7C2FD801B0228C0D82868CD
:101DD0008007F7D52868216920F0F80040EAC100A3
:101DE00028600DE0C8F800A0FFF7B0FD064604E04B
:101DF000FFF7ACFD801B02281FD828688007F7D4A6
:101E00002078000722D5824E83486169703671B10F
:101E100001210160FFF79AFD074604E0FFF796FDF8
:101E2000C01B022809D830688007F7D50EE0C0F83B
:101E300000A0FFF78BFD074605E082E0FFF786FD77
:101E4000C01B02287DD830688007F7D4207840076F
:101E500068D5DFF8BCB100270BF13C0BDBF80000C4
:101E6000C0000BD4DBF8001041F08051CBF800101B
:101E7000DBF80000012700F080500090674E3068CA
:101E8000C00510D4306840F480703060FFF75EFD0C
:101E9000009005E0FFF75AFD0099401A022850D83B
:101EA0003068C005F6D55A4EA0686C3601280FD0B0
:101EB0000528306810D020F001003060306820F034
:101EC00004003060A068B8B1FFF740FD00900FE05B
:101ED000306840F00100F4E740F004003060F7E7BC
:101EE000FFF734FD0099411A41F28830814266D8EB
:101EF00030688007F4D50EE0FFF728FD009007E07A
:101F0000FFF724FD0099411A41F28830814256D8EA
:101F100030688007F4D42FB1DBF8001021F0805135
:101F2000CBF80010A069C8B33949091D0968C1F38D
:101F3000810102294AD00228504607D0C8F8600023
:101F400000E03CE0FFF702FD04463BE04746C8F8EE
:101F50006000FFF7FBFC064605E000BFFFF7F6FC5C
:101F6000801B02282BD828688001F7D4D4E9070108
:101F70000843A16A2A4A490802EB0141626A41EA20
:101F80008211084394F82C1040EA0161C9F800104E
:101F900001203866FFF7DAFC044606E036E000BFB1
:101FA000FFF7D4FC001B022809D828688001F7D568
:101FB0002CE000BFFFF7CAFC001B022802D9032057
:101FC000BDE8F88F28688001F4D41FE00128F7D01D
:101FD000D9F80000E26900F48001914214D1226A2C
:101FE00000F03F0191420FD147F6C071626A014093
:101FF000914209D1A26A00F44031914204D1E16AD0
:1020000000F07060884201D00120D9E70020D7E7B6
:102010000438024000004742800E474200700040F2
:102020000000FFFF7047704770B590F83C20012A10
:1020300032D0012480F83C40022280F83D20036821
:102040005A689D6822F070060A6832435A60134B42
:1020500002689A4214D0B2F1804F11D0104B9A42CC
:102060000ED0104B9A420BD00F4B9A4208D00F4B18
:102070009A4205D00E4B9A4202D00E4B9A4204D19E
:10208000496825F080031943916080F83D400021A4
:1020900080F83C10084670BD022070BD0000014071
:1020A0000004004000080040000C00400004014013
:1020B000004001400018004010B5040003D094F81F
:1020C0003D0010B107E0012010BD002084F83C0065
:1020D000204600F00DF8022084F83D00211D206804
:1020E00000F0C0FE012084F83D00002010BD00007B
:1020F00030B587B0044614216846FEF70BF9246812
:1021000000232F48B4F1804F28D02D4A2D4D103A8E
:102110000221AC4231D1046844F004040460006838
:1021200000F004000590106840F002001060106894
:1021300000F00200059040208DE80B00CDE903314E
:1021400069462148FFF71CFB002211461E20FFF7BD
:1021500089FC1E20FFF778FC07B030BD016841F014
:10216000010101600068002200F0010005901146A5
:102170001C20FFF777FC1C20ECE7144DAC42EBD1A0
:10218000046844F008040460006800F0080005904A
:10219000106840F001001060106800F00100059028
:1021A00001208DE80B00CDE9033169460848FFF7AF
:1021B000E7FA002211463220FFF754FC3220C9E72B
:1021C000403802400008004000040240000C00407B
:1021D000000002400168CA6842F00102CA6000685B
:1021E000816801F00701062903D0016841F001016F
:1021F0000160002070470168CA6822F00102CA60CD
:102200000068016A41F21112114207D1016A92106D
:10221000114203D1016821F00101016000207047E3
:1022200070B5044690F83C00012817D0012584F8C9
:102230003C50022084F83D002068826822F077023A
:1022400022F47F4282600868502830D00DDC2028BC
:102250004DD005DC98B310283BD148E0022070BD7A
:10226000302844D0402834D139E0602828D0702864
:1022700006D0B0F5805F2CD0B0F5005F29D10AE020
:10228000CB68D1E90121206800F050FE2068816808
:1022900041F0770109E0CB68D1E90121206800F025
:1022A00045FE2068816841F48041816011E0CA6880
:1022B0004968206800F08FFE5021206807E016E092
:1022C000CA684968206800F097FE6021206800F025
:1022D00037FE84F83D50002084F83C0070BDCA6889
:1022E0004968206800F077FE40212068EFE7226807
:1022F00001461046EBE7704770B504460068016977
:102300004FF00005C943890715D4C168C94389073F
:1023100011D4E91E016101202077206880698007BF
:10232000204602D0FFF7E7FF04E000F098F82046CF
:1023300000F096F8257720680169C943490717D44A
:10234000C168C943490713D46FF004010161022039
:1023500020772068806910F4407F204602D0FFF784
:10236000CAFF04E000F07BF8204600F079F82577FA
:1023700020680169C943090716D4C168C943090720
:1023800012D46FF008010161042020772068C06931
:102390008007204602D0FFF7AEFF04E000F05FF8B0
:1023A000204600F05DF8257720680169C943C90619
:1023B00017D4C168C943C90613D46FF01001016175
:1023C000082020772068C06910F4407F204602D0A2
:1023D000FFF791FF04E000F042F8204600F040F8DB
:1023E000257720680169C943C90708D1C168C94375
:1023F000C90704D1891E0161204600F033F8206826
:102400000169C943090609D4C168C943090605D44D
:102410006FF0800101612046FFF704FE206801692A
:10242000C943490609D4C168C943490605D46FF0B8
:1024300040010161204600F04AF820680169C94363
:1024400089060BD4C168C943890607D46FF02001FF
:1024500001612046BDE87040FFF7E5BD70BD7047E3
:102460007047000000680349884201D1FFF774BA41
:10247000704700000044014070B5044690F83C00ED
:10248000012812D0012584F83C50022084F83D0038
:10249000204600F05DFD01004FF0000007D084F8F9
:1024A0003D5084F83C00012070BD022070BD2168C1
:1024B000CA6822F04002CA602168CA6822F48042D9
:1024C000CA6084F83D5084F83C00002070BD70471D
:1024D0007047000070B5026804461068D1685369FF
:1024E00010F00F0F52D003F0010501F490762E4347
:1024F0005FD0C20705D0CA0503D5E26B42F00102E6
:10250000E263420705D5DA0703D0E26B42F002022C
:10251000E263820705D5DA0703D0E26B42F00402DA
:10252000E263020707D501F020022A4303D0E26BE1
:1025300042F00802E263E26B002A33D0800604D541
:10254000880602D5204600F0D6FD20684069E16B80
:10255000C0F38010090700D428B3204600F0B4FD72
:102560002068416949061AD5416921F0400141615D
:10257000606BA0B11B490165606BFEF76AFF002824
:1025800010D0606B016DBDE870400847830610D520
:102590008B060ED52046BDE8704000F0ACBD20464D
:1025A000FFF796FF70BD2046FFF792FF0020E06323
:1025B00070BD030606D50B0604D52046BDE8704065
:1025C00000F078BE4006F3D54806F1D5D168204624
:1025D00021F04001D160202184F8391000F054FA34
:1025E00070BD00002930000870B5040004D094F8D4
:1025F0003900002510B106E0012070BD84F8385084
:10260000204600F023F8242084F839002068C168AF
:1026100021F40051C160204600F0B8FD2068016936
:1026200021F4904101612068416921F02A01416152
:102630002068C16841F40051C160E563202084F83E
:10264000390084F83A00002070BD00002DE9F04FF9
:1026500087B0054614216846FDF75CFE8448DFF824
:102660000C821038D5F800C00024DFF80492022153
:102670000323804A061587154FF0080EC4455BD129
:10268000D9F8008048F48018C9F80080D9F800C053
:102690000CF4801CCDF814C0D0F800C04CF0040C31
:1026A000C0F800C0D0F800C00CF0040CCDF814C085
:1026B000D0F800C04CF0080CC0F800C000688A4692
:1026C00000F008000590C8024FF0010B8DE8010CE6
:1026D000CDE9033E9946F04669461046FFF750F8AB
:1026E00004208DE8010CCDE9039869466248FFF7A4
:1026F00047F8DFF88C8161494046C8F80010C905E9
:10270000C0E90114C0E90346C8F81440C0E906470F
:10271000C8F82040C8F82440FEF77EFF08B1FEF755
:10272000B6FCC5F83480002211463520C8F8385070
:10273000FFF798F9352048E0DFF84881C44549D1D2
:10274000D9F8008048F48028C9F80080D9F800C082
:102750000CF4802CCDF814C0D0F800C04CF0040C60
:10276000C0F800C0006800F0040005904FF440601D
:102770008DE813000720CDE9033069461046FEF7C7
:10278000FFFF3E49DFF8008118314046C8F80010CD
:102790004FF00061C0E90114C0E90346C8F81440D5
:1027A000C0E90647C8F82040C8F82440FEF734FFC7
:1027B00008B1FEF76CFCC5F83480002211462720D2
:1027C000C8F83850FFF74EF92720FFF73DF907B05A
:1027D000BDE8F08FDFF8B480C445F8D1DFF890C0D1
:1027E0000CF1040CDCF8008048F02008CCF80080E4
:1027F000DCF800C00CF0200CCDF814C0D0F800C0FC
:102800004CF0040CC0F800C0006800F00400059013
:10281000C0208DE81300CDE9033E69461046FEF75F
:10282000AFFFDFF870801A494046C8F800104FF03B
:102830002061C0E90114C0E90346C8F81440C0E9AA
:102840000647C8F82040C8F82440FEF7E5FE08B166
:10285000FEF71DFCC5F83480002211464720C8F859
:102860003850FFF7FFF84720AFE700000050004066
:102870004038024000080240000C02401060024054
:10288000F4030020004800405404002000140140DC
:1028900040640240B4040020F8B5044690F83A00C1
:1028A00020283CD1C1B3BAB394F83800012836D0FF
:1028B000012084F83800A162A2850025E56322206A
:1028C00084F83A00636B1748D863636B1648186442
:1028D000636B1648D864606B134605650846666BE3
:1028E000216802463046091DFEF700FF2068016896
:1028F0004168009184F83850C16841F48071C1602A
:102900002068416941F0010141612068416941F05D
:10291000400141610020F8BDFFE70120FBE70220F4
:10292000F9E7000083300008BF30000839300008A4
:102930002DE9FF4121490068214C0968884209D1ED
:102940001E4AA0798032217911543F282BD2401C95
:10295000A07128E0194940390968884209D1174A0D
:10296000E079C032617911543F281CD2401CE071DB
:1029700019E0124940310968884214D1E5780026EF
:10298000104F242D05D0A0781E2809D2401CA0701D
:1029900007E01E210B48FDF7BDFC3D70A67002E06C
:1029A000A670A0783D540749684601F015F810223A
:1029B00069460548FDF795FCBDE8FF81340200201B
:1029C00000000020B80000203403002070472DE9EB
:1029D000F843044690F839001F4616460D46202855
:1029E00050D1B5B1AEB194F8380001284AD00120D9
:1029F00084F838004FF00008C4F83C80212084F8A7
:102A00003900FEF7A3FFA6848146E68484F8388067
:102A100026E00120BDE8F883E08C401EE084A06839
:102A20004B46B0F5805F4FF000024FF0800120462A
:102A3000009703D000F06FFCE8B90DE000F06BFCEC
:102A4000C8B928882168C0F308004860206908B127
:102A50006D1C05E0AD1C03E0216815F8010B486012
:102A6000E08C0028D8D14B46002240212046009718
:102A700000F051FC08B10320CCE7202084F8390095
:102A80000020C7E70220C5E77047FEE71FB5002119
:102A900012480091019102910F4A039102604FF494
:102AA0004032C0E9012101240161047680F8201040
:102AB0000B4AC0E90A21C461C16080F8301044614A
:102AC000FEF78CFB0620CDE9000407200290694642
:102AD0000248FEF7DDFA1FBD00200140D8000020AB
:102AE0000100000F154808B5016841F400110160AC
:102AF000016801F400110091016841F48001016056
:102B00000068002200F48000009011460B20FEF7C0
:102B1000A9FF0B20FEF798FF002211460C20FEF7BC
:102B2000A1FF0C20FEF790FF002211463A20FEF78D
:102B300099FFBDE808403A20FEF786BF30380240D2
:102B400070B586B014216846FDF7E4FB2D480024DB
:102B5000016841F004010160016801F00401059180
:102B6000016841F080010160016801F08001059178
:102B7000016841F001010160016801F00101059166
:102B8000016841F002010160016801F00201059154
:102B9000016841F00801016000681B4E00F0080068
:102BA0004FF49C450590002229463046FEF7C9FEA9
:102BB00049F20700CDE90004694630460294FEF769
:102BC000DFFD01200095CDE90104694630460394FC
:102BD000FEF7D6FD4FF4005000900220CDE901042D
:102BE000032003900520049069463046FEF7C8FD97
:102BF000B015CDE90004694604480294FEF7C0FD13
:102C000006B070BD303802400004024000000240AF
:102C100010B586B0002412480094019402940394E5
:102C200004944FF08041059401604FF4E151C0E9F4
:102C3000011442F21071C0E903148461FFF73CFAF9
:102C40004FF48050009069460548FFF7E9FA049474
:102C500004A903480594FFF7E7F906B010BD00008A
:102C60003401002010B588B014216846FDF752FBEE
:102C70000024114805940F490694C0E900144FF64A
:102C8000FF71C0E9024104618461FFF715FA072072
:102C900000905020CDE90104694607480494FFF7ED
:102CA000EBFB059405A904480694FFF7BDF908B0AD
:102CB00010BD0000000800407401002010B588B06D
:102CC00014216846FDF726FB0024114805940F499E
:102CD0000694C0E900144FF6FF71C0E90241046197
:102CE0008461FFF7E9F9072000905020CDE9010445
:102CF000694607480494FFF7BFFB059405A90448FB
:102D00000694FFF791F908B010BD0000000C0040D8
:102D1000B4010020FEE77047012202490248FFF794
:102D2000BBFDF9E703000020740200201FB510224C
:102D300004496846FDF7D5FA9DE80F0000F002FF50
:102D4000F5E700003403002010B5502080F311880F
:102D5000BFF34F8FBFF36F8F02F050F818B10449E3
:102D60004FF080500860002080F3118810BD0000F3
:102D700004ED00E030B593B030216846FDF7CAFAA3
:102D800014210CA8FDF7C6FA18480025016841F087
:102D900080510160006800F0805011901448016873
:102DA00041F4804101600068022400F480401190E9
:102DB00001200090000401908001CDE90640082028
:102DC00008904820CDE9090404200B906846FEF7DE
:102DD0007BFF0CA90F2081E83100E002CDE90F054F
:102DE00002210CA8FEF770FE13B030BD403802403F
:102DF000007000400548016841F47001016003491A
:102E00004FF00060803908607047000088ED00E0F6
:102E10000148FFF771BA0000680700200148FFF77A
:102E20006BBA00003401002003480188491C01806E
:102E30000248FFF761BA00000E0000207401002074
:102E400003480188491C01800248FFF755BA000079
:102E500010000020B40100200148FEF73CBA000039
:102E600020010020F0B50268254C264D264E274F44
:102E7000274B4FF0804CA04209D0604507D0A842B4
:102E800005D0B04203D0B84201D0984204D122F01C
:102E9000700E4A6842EA0E02A0421BD0604519D06B
:102EA000A84217D0B04215D0B84213D0984211D0E2
:102EB000184DA8420ED0184DA8420BD0174DA8426D
:102EC00008D0174DA84205D0164DA84202D0164D85
:102ED000A84203D122F44075CA682A434D6922F002
:102EE00080022A4302608A68C2620A688262A04243
:102EF00001D0984201D10969016301214161F0BD0E
:102F0000000001400004004000080040000C0040A8
:102F100000040140004001400044014000480140DD
:102F200000180040001C00400020004010B58468DC
:102F300042EA032224F47F440A432243826010BD04
:102F4000826822F070020A4342F0070181607047F4
:102F500010B503689A6822F070044A68224322F090
:102F600007040A6822439A604A6812F00F0F30D1B2
:102F70001211082A2DD2DFE802F02C2C2C2C0B2168
:102F800027040B69D1E902210068FFF7CFFF20E099
:102F90000A68052A10D00268136A146A24F0010432
:102FA000146202689469096924F0F00444EA01118A
:102FB0009161006803620CE0012010BD0A69896814
:102FC000006800F008F804E00A698968006800F009
:102FD00013F8002010BD10B5036A046A24F0010440
:102FE0000462846924F0F00444EA021423F00A0223
:102FF0000A438461026210BD10B5036A23F0100316
:1030000003628369046A23F4704343EA023224F0C2
:10301000A00343EA01118261016210BD0148FFF77C
:1030200059BA0000F401002010B5806B0021C18561
:10303000C184FFF74DFA10BD70B5846B20684069FC
:1030400094F83910C0F3C0100025212904D118B11B
:10305000E584204600F046F82068406994F83A106C
:10306000C0F38010222904D118B1E585204600F074
:103070002BF8E06B40F01000E0632046FFF728FAE1
:1030800070BD10B50146806B09680968C90513D485
:103090000021C1850168CA6822F48072CA60016893
:1030A0004A6922F001024A6101684A6922F040023D
:1030B0004A61202180F83A10FFF73AFC10BD10B5A4
:1030C000806BFFF783FC10BD0168CA6822F4907220
:1030D000CA6001684A6922F001024A61202180F831
:1030E0003A1070470168CA6822F0C002CA60202105
:1030F00080F83910704710B590F83A10222901D0A5
:10310000022010BD8168B1F5805F11D001690029EE
:1031100001681FD0496801F07F03816A4A1C8262FE
:103120000B70C18D491E0904090CC18518D02BE014
:103130000269816A002A0268526805D0D2B20A8008
:10314000816A491C8162ECE7C2F308020A80816A45
:10315000891CF7E74A68816A4B1C83620A70E0E7C2
:103160000168CA6822F02002CA600168CA6822F4B5
:103170008072CA6001684A6922F001024A61202116
:1031800080F83A10FFF7D4FB002010BD2DE9F04184
:10319000044600680169E26821F44051114301616D
:1031A0002169A068E2690843616911430843216805
:1031B000CA6849F20C639A430243CA6020684169B5
:1031C000A26921F4407111434161E0691927642526
:1031D0003226B0F5004F354A354920684FF00008D7
:1031E00006D0884201D0904236D1FEF737FD35E057
:1031F000884201D0904202D1FEF730FD01E0FEF797
:103200001DFD61684A18A0FB070148EB0803FDF7A4
:1032100037F80146B0FBF5F00201B1FBF5F06FF0B5
:103220001803584301EB800006EBC000B0FBF5F03B
:1032300000F0F80002EB4002B1FBF5F0584301EB5F
:10324000800006EBC000B0FBF5F000F0070021683D
:1032500010448860BDE8F081FEF7F0FC61688B0FD8
:103260008A00A0FB0701FDF70BF80146B0FBF5F063
:103270006FF01802504301EB800006EB0010B0FB2A
:10328000F5F000F0F002B1FBF5F002EB0012B1FB3B
:10329000F5F06FF01803584301EB800006EB0010C7
:1032A000B0FBF5F000F00F00D1E700000014014082
:1032B0000010014090F83910212901D002207047F8
:1032C0008168B1F5805F016A0BD04A1C0262026816
:1032D00009785160C18C491E0904090CC1840ED0C3
:1032E00017E009880268C1F30801516001690029EB
:1032F000016A02D0491C0162ECE7891CFBE7016806
:10330000CA6822F08002CA600068C16841F04001CA
:10331000C160002070472DE9F041984617460E46DF
:103320000446069D1DE0681C1BD02DB1FEF70EFB68
:10333000A0EB0800A84214D92068C16821F4D0711C
:10334000C1602068416921F001014161202084F8B9
:10335000390084F83A00002084F838000320BDE8E2
:10336000F0812068006836EA000004D00020B842EE
:10337000D9D00020F3E70120F9E700000148FFF76A
:10338000A9B80000340200200148FFF7A3B80000EC
:1033900074020020FEE700000FB4084B10B504A92A
:1033A00002AA039800F09CF8044602A9002000F04D
:1033B000C8FA204610BC5DF814FB00004339000831
:1033C0000907090E002804DB00F1E02080F8001452
:1033D000704700F00F0000F1E02080F8141D7047E6
:1033E00010B52DED020B2DED088B84B09DED0C0B6F
:1033F00051EC100BFDF708FB41EC180B9DED0C0B8D
:1034000053EC182B51EC100BFDF7F7FA41EC190BAC
:103410000D989FED290B10F0004F53EC102B51EC41
:10342000190B9FED21AB9FED22BB0ED0FDF730FBBA
:103430000ED953EC1B2B51EC190BFDF741FB1CD2A1
:1034400014E000BF41EC180B17E0FDF721FB06D29A
:1034500053EC1A2B51EC180BFDF7CFFAF2E753ECB3
:103460001B2B51EC190BFDF72BFB06D853EC1A2B39
:1034700051EC180BFDF720FAE4E78DED028B9DED82
:103480000C0B18EE901A10EE900A8DED000B61F304
:103490001E0003909DED020B04B0BDEC088B02B042
:1034A00010BD000000000000000000000000F03F20
:1034B000000000000000E03F000000000000E0BF4E
:1034C00002E008C8121F08C1002AFAD170477047ED
:1034D000002001E001C1121F002AFBD1704700004B
:1034E0002DE9FF4F8DB00F460546002606E0252842
:1034F0000BD0DDE90F1290476D1C761C2878002850
:10350000F5D111B03046BDE8F08F0024A246A146A7
:103510000122EC4900E0044315F8013F203B02FA88
:1035200003F00842F7D128782A2810D06FF02F0234
:103530002878A0F13001092914D80AEB8A0102EB9E
:10354000410144F0020400EB010A6D1CF0E701CFD9
:103550005FEA000A03D544F40054CAF1000A44F0BB
:1035600002046D1C28782E2817D115F8010F44F09D
:1035700004042A280ED06FF02F022878A0F1300121
:1035800009290AD809EB890102EB410100EB010985
:103590006D1CF2E757F8049B6D1C28786C280FD03F
:1035A00006DC4C2817D068280DD06A2814D104E016
:1035B000742810D07A280FD10DE044F400140AE0EA
:1035C00044F4801401E044F440146978814202D14B
:1035D00004F580146D1C6D1C2A786E2A1FD00CDC3B
:1035E000632A31D004DC002A8BD0582A11D1A3E001
:1035F000642A68D0692A0CD165E0732A2ED004DCD5
:103600006F2A73D0702A04D19BE0752A6FD0782A74
:103610006ED01046DDE90F129047761C50E1C4F3DE
:103620000250022806D0032809D0042801CF09D06F
:10363000066045E101CFF117C0E9006140E101CF2B
:1036400006803DE106703BE117F8040B8DF80000A1
:1036500000208DF80100EB46012003E057F804BB81
:103660004FF0FF3061074FF0000102D40DE008F188
:103670000101884649450FDA8045F8DB1BF8081040
:103680000029F4D108E008F1010188468142FADB03
:103690001BF808100029F6D1DDE90F23AAEB08007A
:1036A0008146214600F036F9304400EB080604E07C
:1036B000DDE90F121BF8010B9047B8F10108F7D2B2
:1036C00021464846F7E00A21C4F302534FF0000BAD
:1036D0000891022B04D001CFC117032B09D00AE0B7
:1036E000FF1D27F00707F7E8020108E032E01FE0BE
:1036F00020E000B2C117042B01D140B2C117031E54
:1037000071F1000307DA4FF0000CD0EB0C006CEB0A
:1037100001012D2302E0230504D52B238DF824304D
:10372000012303E0E30701D02023F7E7984658E0A0
:103730000A2110E010210EE010204FF0000B08903D
:103740000CE010214FF0000B44F004044FF0080986
:10375000089103E008214FF0000B0891C4F30253D5
:10376000022B04D001CF0021032B06D006E0FF1D61
:1037700027F00707F7E8020103E080B2042B00D12D
:10378000C0B24FF0000823072BD5702A07D0DDF810
:1037900020C08CF0100C5CEA0B0C05D00EE040232E
:1037A0008DF82430012308E050EA010306D03023CD
:1037B0008DF824308DF8252002239846DDF820C0AE
:1037C0008CF0080C5CEA0B0C0BD150EA010301D120
:1037D000630706D530238DF824304FF00108A9F196
:1037E0000109582A04D038A20B9208AA0A920BE0C9
:1037F0003AA2F9E75B46089AFCF742FD0B9B9B5CFB
:103800000A9A521E0A92137050EA0102F2D10A98E3
:10381000ADEB000000F1200B600702D524F48034EA
:1038200001E04FF00109D94502DDA9EB0B0000E0F2
:10383000002000EB0B0141440890AAEB010AE003D1
:1038400006D4DDE90F232146504600F063F8064414
:103850004FF0000908E009A911F80900DDE90F128D
:10386000904709F10109761CC145F4DBE0030CD552
:10387000DDE90F232146504600F04CF8064404E0F1
:10388000DDE90F1230209047761C0899481E0890F9
:103890000029F5DC08E00A980A990078491C0A9189
:1038A000DDE90F129047761CBBF10001ABF1010B73
:1038B000F1DC21465046DDE90F2300F019F80644FB
:1038C0006D1C1BE6092801003031323334353637A0
:1038D000383961626364656600000000303132335C
:1038E00034353637383941424344454600000000FC
:1038F0002DE9F041044600251E461746880404D4ED
:1039000005E039462020B0476D1C641EF9D52846D5
:10391000BDE8F0812DE9F041044600251E469046A1
:10392000C80301D5302700E02027880404D505E02E
:1039300041463846B0476D1C641EF9D52846BDE89F
:10394000F0810A68531C0B601070704700EE101A6B
:10395000B8EE401A00EE100A1148B8EE400AC1EE67
:10396000000A00EE103AF8EE401A00EE102AB8EE07
:10397000400A81EE801AC0ED040A80ED051A80EE3F
:10398000810AF7EE000A80ED060A30EE601AF0EECA
:10399000000A70EE200A81EE200A80ED070A7047C7
:1039A000C403002070B500240346224606E000BF91
:1039B00013F8015B521C2C44A4B2D2B28A42F7D352
:1039C0000844E2B202A1FFF7E7FCE0B270BD0000DC
:1039D00025303258000000002DE9F04387B08146C1
:1039E000002088468DF816008DF80800ADF812000A
:1039F000ADF8140038A14046FCF797FC00283AD0F7
:103A000004AEB41E02AFCDE900463B1D33A14046D3
:103A1000BA1CFCF7B3FC0125042834D0CDE90046DC
:103A20003B1DBA1C32A14046FCF7A8FC04282FD04D
:103A30003B1DBA1C34A140460094FCF79FFC0328B0
:103A40002ED036A14046FCF799FC01282ED0092241
:103A500036A14046FCF782FC78B3062236A14046E8
:103A6000FCF77CFC50B303208DF80800BDF80A0079
:103A700008B18DF81650102202A94846FCF731FC17
:103A800007B0BDE8F08306208DF808002C4804E05C
:103A900005208DF808002A481830FCF758FCE5E7A7
:103AA0002748401DFCF753FC0420DDE72448503034
:103AB000FCF74DFC8DF80850D8E700E005E0204801
:103AC0000B30FCF744FC0220CEE71D481130FCF718
:103AD0003EFC0720C8E700000A0000002452504FB7
:103AE0004C2C25642C25642C25642C25640D0A009F
:103AF0002452434F4E4649472C25642C25642C25DF
:103B0000642C25640D0A000024525A45524F2C257E
:103B1000642C25642C25640D0A00000024534746BC
:103B20004143544F522C25640D0A00002452524543
:103B30005345540D0A0000002452434F564552008D
:103B4000884F00082DE9F04FDFF8388300F0FF0CB4
:103B50002DED028B060CCC4D0024D8F8380087B030
:103B60001FFA81FBC3F307471FFA82FA4FEA114994
:103B7000BCF1080F7ED2DFE80CF0B9FDFCFBFA04C3
:103B8000BEF900F0D5FFC6EB06316420B1FBF0F0C2
:103B900000EE100ABD4FB8EE400A10EE100A88ED94
:103BA000100A9FEDBB8AB84201DD88ED108A98EDBE
:103BB000100AB54E0022BCEEC00A9036114610EE37
:103BC000100A10EE103AB084A6F52970FDF7FEFB3E
:103BD000CBEB0B316420B1FBF0F000EE100AB8EE35
:103BE000400A10EE100A88ED100AB84201DD88ED97
:103BF000108A98ED100A00221021BCEEC00A10EEC7
:103C0000100A10EE103AF084A248FDF7DFFB002303
:103C10001A4619469F48FDF7D9FB00231A46102182
:103C20009C48FDF7D3FBA6F82A904846FCF7DAFC3F
:103C30009FED998B53EC182BFCF762FCFCF72AFDE7
:103C4000C8F84400FCF713FD41EC100BFFF7C8FB6C
:103C500051EC100BFCF7F2FC82B2A8F8122090A1F4
:103C600004A8FFF799FB042304AA0F218E4800F053
:103C700049F900E03AE06420FDF770FDA6F82CA0B9
:103C80005046FCF7AFFC53EC182BFCF739FCFCF763
:103C900001FDC8F84400FCF7EAFC41EC100BFFF70B
:103CA0009FFB51EC100BFCF7C9FC82B2A8F8122064
:103CB0007BA104A8FFF770FB7B48042304AA0F2113
:103CC000403800F01FF96420FDF748FD77480FC821
:103CD0008DE80F0064230E22734869464030FEF7DA
:103CE00076FE2C70D8F8380000F0AEFE07B0BDECC0
:103CF000028BBDE8F08F00F01BFF98F80020B8F8A9
:103D00000A10B8F8080000F0EBF9D8F83010D8F82D
:103D10002C00A1EB0B03821BD8F82810D8F82460E4
:103D2000A1EB0A01A6EB0900FFF710FE88ED0F0AD0
:103D300010EE100AFCF79BFC9FED5D8B53EC182BEB
:103D4000FCF7DEFBFCF75BFC02464F485AA1103043
:103D5000FFF722FBC6B2D8F83C00FCF788FC53EC16
:103D6000182BFCF7CDFBFCF74AFC04E058E00BE015
:103D70006DE077E034E0024643484FA11030FFF792
:103D80000BFB6423324624E000F0D2FE6FB198F8BA
:103D90000020B8F80A10B8F8080000F0A1F92C705B
:103DA000D8F8380000F050FE05E037489030C46085
:103DB00084604460046034489030D0E90021CDE94B
:103DC0000012D0E902323FA18038FFF7E5FAC2B213
:103DD00064232D49103134484030FEF7F8FD29E0C6
:103DE00000F0A6FE9FB100EE106ADFED3C0A264807
:103DF000B8EE400A903080EE201A80ED081A2B4869
:103E000010300FC88DE80F0064230E221DE0D8F893
:103E1000380007B0BDEC028BBDE8F04F00F014BED7
:103E200000F086FE4FF480712D48FDF785FD18B136
:103E3000012804D02C70EAE72AA107C901E02CA2CE
:103E400007CA8DE8070064230C226946C3E700F027
:103E50006FFE1649182220316846FCF742FA6423A7
:103E6000152239E700F064FEBFF34F8F2348016845
:103E7000234A01F4E06111430160BFF34F8F00BF9B
:103E8000FDE70000000000203403002000F07F4523
:103E900000F07F4520010020B7973446EBA8E13FB2
:103EA000253032580000000034020020E44F0008A2
:103EB0000000000000408F402452504F4C2C2564DD
:103EC0000D0A000024525A45524F2C25642C2564BB
:103ED0002C25642C25640D0A0000000000007A44A3
:103EE000000002402452434F5645522C300D0A0028
:103EF0002452434F5645522C310D0A000CED00E080
:103F00000400FA05F0B589B00C4607461D46164672
:103F100020216846FCF7FEF902208DF800001549C3
:103F200004EB440008446C460188ADF80110807829
:103F30008DF8030004203EB135B12A463146201DDC
:103F4000FCF7CFF92D1DE8B203212154401CC5B266
:103F500029466846FFF726FDAD1CE8B20D21215425
:103F6000401CC2B2642369463846FEF730FD09B0F2
:103F7000F0BD0000A84F000890B0FDF7F5FCFEF77B
:103F8000F9FEFEF7DDFDFEF7ADFDFEF77FFD002437
:103F900049490E9447480F9408600846FDF7C9F94F
:103FA0000220CDE90E4000220EA94348FDF771F929
:103FB00010220EA94048FDF76CF9FEF753FEFEF7FC
:103FC0007DFEFEF725FE3C483C49D4304FF4806826
:103FD0008F14C0F81080C0E902740C26C0E9056493
:103FE0004FF41645C461C0E90015FEF7FDFA3548E7
:103FF0003349C0F81080C0E90274C0E90564C461A7
:10400000C0E90015FEF7F0FA2E4D2F484035286024
:104010004FF4E130C5E90104EC60C5E90446AC6148
:104020002846EC61FEF7E0FA2868C16841F04001DB
:10403000C160012225492846FEF72EFC00231A46BE
:1040400019461D48FDF7C2F900211B48FDF7CBF9C1
:1040500000231A4610211848FDF7B8F91021164818
:10406000FDF7C1F900231A4609211648FFF74AFF58
:1040700000231A460921A5F18000FFF743FF1C2207
:1040800013496846FCF72DF90021684600F086F9CF
:104090000E4C0F49E41E1C2260631C3107A8FCF77C
:1040A00020F9002107A800F079F9A06300F071F968
:1040B000FEE7000000740040200100200050004096
:1040C000004800403402002000140140030000209A
:1040D0001C50000801460020842900D0C81C7047ED
:1040E0002DE9F74F06464FF480719F48FDF724FCF9
:1040F000002128B1012801D19C480170BDE8FE8F44
:104100009B4C9A4D4FF001092162A161E16161610F
:104110006162A162E1629035216385F82890688D23
:10412000884678B9A88D68B9042392A20F21A5F515
:10413000C870FFF7E7FE04238EA20F21A5F5E870F3
:10414000FFF7E0FE002700231A460A218B48FFF7FD
:10415000D9FE0A20FDF702FB884800231A460A21EF
:104160004038FFF7CFFE7F1CBFB2052FEBD34FF4D3
:104170007A70FDF7F3FAA98C40F6FF7001B9A884B4
:10418000E98C01B9E884DFF8F4A10027AAF1C00A9C
:104190000AF1400BB5E010217948FDF717F900222C
:1041A000AB8C11467648FDF711F9029800F0EAF859
:1041B00073485430FEF70EF870488038FEF70AF85E
:1041C000A4F80E80A4F81080DAF80010C1F824805A
:1041D000DBF80010C1F82480019800F0D3F868489B
:1041E0005430FEF708F865488038FEF704F8DAF82E
:1041F0000000406AE189C1EB01410844A061DBF89D
:1042000000104A6A218AC1EB01411144E16195ED38
:10421000080AB5EEC00AF1EE10FA09DD00EE901AB8
:10422000F8EE600A20EE200ABCEEC00A84ED070A10
:10423000E16A00220844E062E169206B08442063DF
:10424000EB8C10214E48FDF7C1F800231A461946A1
:104250004B48FDF7BBF8029800F094F848485430FA
:10426000FDF7B8FF45488038FDF7B4FFA4F80E808D
:10427000A4F81080DAF80010C1F82480DBF80010F0
:10428000C1F82480019800F07DF83D485430FDF7D6
:10429000B2FF3A488038FDF7AEFFDAF80000406A16
:1042A000E189C1EB014101442162DBF80000406A71
:1042B000228AC2EB02421044606195ED080AB5EE15
:1042C000C00AF1EE10FA09DD00EE900AF8EE600A7D
:1042D00020EE200ABCEEC00A84ED050A606A08449C
:1042E00060626169A06A0844A06284F80190642059
:1042F00000F048F884F80180A089401C7F1CA08150
:10430000BFB24FF00003B7421A46FFF444AF092191
:104310001A48FFF7F7FD194800231A4609214038CB
:10432000FFF7F0FD00231A4619461548FDF74EF831
:1043300000231A4610211248FDF748F8606AB0FBC6
:10434000F6F26262A06AB0FBF6F0A062E16AB1FB2D
:10435000F6F1E162236BB3FBF6F32363E96085E8D2
:104360000D0085F82880C9E60000024034030020D3
:1043700000000020374237300000000034020020E7
:104380002001002010B500B9012000F037FB00200B
:1043900010BD10B500F096FB002010BD7FB50D4696
:1043A00004464169B0F9080081B1A16971B1FFF714
:1043B00091FED4E905128DE80700D4E900102B46E0
:1043C000226900F0F0FC039004B070BDFFF782FE9C
:1043D00003A9CDE90001208A2B4682B2D4E900105E
:1043E00000F0B4FC012801D00020EDE70398EBE7D2
:1043F0002DE9F041184C0F46054666692068001DFE
:1044000000F038FA38B9206890F82C100120884064
:10441000A1698143A161681C07D137B12168BDE85A
:10442000F0410E48091D00F069BA20683544B542D4
:104430004560216805D2A068BDE8F041091D00F083
:1044400045BA6068091D00F041FA206B854200D230
:104450002563BDE8F081000058000020840800209A
:104460002DE9F041054600F055FA2E4C2069401C1C
:10447000206120682C4F10B1E06940B32DE0256029
:104480002069012829D1002606EB860007EB800071
:1044900000F00EFA761C072EF6D323488C3000F07D
:1044A00007FA2148A03000F003FA1F48B43000F0AA
:1044B000FFF91D48C83000F0FBF91B48DC3000F064
:1044C000F7F919488C3060601430A06005E020686E
:1044D000E96AC06A884200D82560E06A401CE06250
:1044E000E96A0120A26988401043A06101EB8100C4
:1044F00007EB8000291D00F001FA00F02BFAE069BB
:1045000000280CD02068E96AC06A884207D20749AF
:104510004FF080500860BFF34F8FBFF36F8FBDE83F
:10452000F081000058000020A807002004ED00E002
:1045300010B5044690F8510058B101280CD002285B
:104540000FD0502080F31188BFF34F8FBFF36F8FD0
:10455000FEE7206B00F012FA2046BDE8104000F0A4
:104560000DBA10BD10484FF47051420706D0C01D5F
:104570000D4920F00700411AC1F570510B4A002384
:104580000144C2E900030839103A21F00701116023
:104590004B600B600B1AC0E9001393604FF00040B2
:1045A0005360D0607047000098080020A4000020ED
:1045B000144E154CA6F1C8074FF08058DFF84C9008
:1045C00012E000BF00F0A6F9F068C568281D00F0F1
:1045D00051F92069401E2061E068401EE06000F053
:1045E000B9F92846FFF7A4FFE0680028EAD1386847
:1045F0000128F9D9C9F80080BFF34F8FBFF36F8F3F
:10460000F2E70000700800205800002004ED00E0F0
:104610002DE9F0479A46DDE9098481466FF00303EE
:10462000206B03EB82021044089E20F007077807F6
:1046300007D0502080F31188BFF34F8FBFF36F8FE7
:10464000FEE7002561B1002023180A5C83F83420BE
:104650000A5C12B1401C1028F6D384F8435001E0E4
:1046600084F83450072E00D30626E662C4E91165AB
:10467000201D00F028F904F1180000F024F924614D
:10468000C6F107006462A061E56484F850505246A8
:104690004946384600F0D8F82060B8F1000F01D044
:1046A000C8F80040BDE8F08730B5114900E0114678
:1046B0000A688242FBD34B685C18844203D140688D
:1046C00018444860084643681C18944209D1084CB5
:1046D000103C2468A24209D052681A4442600A6819
:1046E00012680260814200D0086030BD0460F9E7C2
:1046F000A400002006484168096829B14168C968DA
:10470000C9684968016370474FF0FF31FAE700005C
:104710005800002008484068401C4FF0500080F3CB
:10472000118804D0BFF34F8FBFF36F8FFEE7BFF345
:104730004F8FBFF36F8FFEE7AC000020002150B118
:104740000A4B42699A420FD1806AA3F12802904233
:104750000AD040B108E0502080F31188BFF34F8F9A
:10476000BFF36F8FFEE701210846704784080020E1
:104770002DE9F0410546002700F038FA314E306847
:1047800008B9FFF7EFFEF06805424BD1C5B3083515
:1047900068070ED005F00700C0F10800054468075F
:1047A00007D0502080F31188BFF34F8FBFF36F8F76
:1047B000FEE72DB37068854234D822481030014698
:1047C0000C6801E020460C466168A94202D22168CB
:1047D0000029F7D131688C4224D007682168016034
:1047E00060680837411B10290FD96019420708D0AB
:1047F000502080F31188BFF34F8FBFF36F8FFEE718
:1048000010E041606560FFF74FFF61687068401A13
:104810007060B268904200D2B060F068014300203E
:10482000C4E9000100F04EFB780707D0502080F368
:104830001188BFF34F8FBFF36F8FFEE73846BDE897
:10484000F08100009400002010B5031F4FF0807429
:104850001C601B1F21F001011960191F044B0B6024
:1048600014390A60091F6FF0020244380A6010BD53
:1048700015470008D0E9013201699A60D0E90123A7
:104880005A604A68824201D182684A60002202610D
:104890000868401E0860086870470000034B03600A
:1048A00003F1540008608020106070471405002058
:1048B00000F108014FF0FF32C0E90112C16001614F
:1048C00000210160704700210161704730B50B681D
:1048D0005A1C02D000F1080202E0026904E02246FC
:1048E000546825689D42FAD953684B6099608A6084
:1048F000516008610168491C016030BD42684A602E
:1049000093688B6093685960916008610168491CE5
:1049100001607047502080F31188BFF34F8FBFF3C1
:104920006F8F0A494868401C486001280CD108482C
:10493000006810F0FF0F07D0502080F31188BFF3FC
:104940004F8FBFF36F8FFEE770470000AC00002071
:1049500004ED00E00849486828B1401E486001D1D4
:1049600080F311887047502080F31188BFF34F8F78
:10497000BFF36F8FFEE70000AC00002070B5002889
:1049800027D0144DA0F108046168E868014207D1FE
:10499000502080F31188BFF34F8FBFF36F8FFEE776
:1049A00022683AB1502080F31188BFF34F8FBFF3D4
:1049B0006F8FFEE78143616000F018F960686968F5
:1049C000084468602046FFF76FFEBDE8704000F0C5
:1049D00079BA70BD940000204FF0E0200021016101
:1049E000816105494FF47A720968B1FBF2F1491E01
:1049F00041610721016170475400002010B5020099
:104A000014D00F48806B38B1502080F31188BFF369
:104A10004F8FBFF36F8FFEE700F0E8F800211046DC
:104A2000FFF7E6FC00F04EFA002807D105494FF0E9
:104A300080500860BFF34F8FBFF36F8F10BD000031
:104A40005800002004ED00E070B504002BD01A4D92
:104A5000286884422FD0FFF75DFF2046FFF76EFEE7
:104A6000E8B1201DFFF706FFE06A0121AA69814035
:104A70001143A961114900EB800001EB8000211D69
:104A8000FFF73CFFE06A2968C96A884207D30C49EE
:104A90004FF080500860BFF34F8FBFF36F8FBDE8BA
:104AA0007040FFF757BF502080F31188BFF34F8F3E
:104AB000BFF36F8FFEE770BD58000020A8070020ED
:104AC00004ED00E010B586B00024039405AA04A903
:104AD00003A80494FFF7E2FEDDE903010094CDE9A9
:104AE000011000230EA11048059A00F05CF90F494F
:104AF0000028486311D0502080F31188BFF34F8FF6
:104B0000BFF36F8F4FF0FF3008630120C8614C6125
:104B100006B0BDE8104000F09FB806B010BD000020
:104B200049444C4500000000B145000858000020F1
:104B300070B50446FFF7EEFE294D04B92C68201D20
:104B4000FFF798FE58B9E06A264A00EB800152F858
:104B5000211021B901218140A8698843A861A06A78
:104B600018B104F11800FFF785FE1E48211DDC3046
:104B7000FFF7C4FE94F850000026012801D184F804
:104B80005060FFF7E7FEE86928B1FFF7C3FEFFF7C3
:104B9000B1FDFFF7DFFE2868844213D1E86990B1C8
:104BA000A86B38B1502080F31188BFF34F8FBFF34B
:104BB0006F8FFEE70C494FF080500860BFF34F8FB6
:104BC000BFF36F8F70BD0748DC30006829698842E9
:104BD00001D12E6070BDBDE8704000F00FB800003C
:104BE00058000020A807002004ED00E00248816B77
:104BF000491C816370470000580000201448816BF5
:104C000011B1012141627047002141628169B1FA0D
:104C100081F1C1F11F0101EB81020E4951F82230EF
:104C20006BB101EB820101F108034A6852684A60E6
:104C30009A4201D152684A60D168016070475020A1
:104C400080F31188BFF34F8FBFF36F8FFEE7000033
:104C500058000020A80700201CB537480168374AD3
:104C6000914207D1502080F31188BFF34F8FBFF3DB
:104C70006F8FFEE700683149491E884207D15020F6
:104C800080F31188BFF34F8FBFF36F8FFEE72C497E
:104C900008780190FF20087008788DF800009DF8D2
:104CA00000009DF8002000F0F000904207D0502056
:104CB00080F31188BFF34F8FBFF36F8FFEE79DF82E
:104CC0000000204B00F0500018700720986005E0AD
:104CD0009DF8002052008DF80020401E9DF8002015
:104CE0001206F5D49860032807D0502080F311886D
:104CF000BFF34F8FBFF36F8FFEE74FF440709860A4
:104D0000019808700C482030016841F4700101607E
:104D1000016841F070410160FFF75EFE00205860BD
:104D2000FBF760FA0848016841F040410160FBF779
:104D300045FA00201CBD000000ED00E071C20F41EB
:104D400000E400E0AC00002034EF00E02DE9FF5F5C
:104D50008346DDE90E87994616468A469000FFF79E
:104D600007FD05001CD05420FFF702FD040014D0FD
:104D70000020256384F85100CDE90240CDE9008789
:104D80004B46324651465846FFF742FC2046FFF755
:104D900067FB012004B0BDE8F09F2846FFF7EEFD59
:104DA0004FF0FF30F6E7F0B585B0DDE90B640A9D02
:104DB000A6B1DCB1542700972663022684F851601F
:104DC000002604AFCDE90246CDE90057FFF720FCED
:104DD0002046FFF745FB049805B0F0BD502080F356
:104DE0001188BFF34F8FBFF36F8FFEE7502080F322
:104DF0001188BFF34F8FBFF36F8FFEE72DE9F041AE
:104E00002E4C0027A06B40B1206A401C2062606AD3
:104E100000B101273846BDE8F0816669761C6661FD
:104E200013D16068006838B1502080F31188BFF357
:104E30004F8FBFF36F8FFEE76068A1686160A0606D
:104E4000A06A401CA062FFF755FC206BDFF8708061
:104E5000864209D36068006880B16068C068C56830
:104E6000686886420DD220632068C06A00EB80012A
:104E700058F821000128CAD90127C8E74FF0FF30B0
:104E8000F1E7281DFFF7F6FCA86A18B105F1180034
:104E9000FFF7F0FCE86A0121A26981401143A1619A
:104EA00000EB800108EB8100291DFFF727FDE86A70
:104EB0002168C96A8842CDD30127CBE7580000207A
:104EC000A80700202DE9F0472C4D00242746A86BA9
:104ED00038B1FFF71FFDA86B401EA863A86B40B157
:104EE00046E0502080F31188BFF34F8FBFF36F8FE0
:104EF000FEE72969224E0120D1B3A6F1B40980460C
:104F00003068E8B1F068C46804F11800FFF7B2FC3B
:104F1000201DFFF7AFFCE06AAA6908FA00F111430F
:104F2000A96100EB800109EB8100211DFFF7E6FC80
:104F3000E06A2968C96A8842E2D3C5F82480DFE7BD
:104F40000CB1FFF7D7FB2C6A44B14646FFF756FF7A
:104F500000B16E62641EF9D100202862686A38B11F
:104F60000849012738070860BFF34F8FBFF36F8FE1
:104F7000FFF7F0FC3846BDE8F0870000580000203D
:104F80005C08002004ED00E052504F4C00525A459E
:104F9000524F0052455345540052434F564552001C
:104FA00052434F4E46494700485354485254485084
:104FB0004F4847534847564847434847544846494F
:104FC00048474E484F46484F4E48524548434D4843
:104FD00053434852434842565347464143544F5225
:104FE000000000002452434F4E4649470D0A00007E
:104FF000000000002453474641432C4F4B0D0A004C
:1050000000000000245241424F52540D0A0000009B
:10501000000000000000000000000000B450000884
:105020002D2D00080000000000000000800000009E
:105030000000000000000000C0500008192D00080A
:1050400000000000000000008000000000000000E0
:1050500000000000000610160006101600000000F8
:105060000000000001020304060708090000000018
:1050700001020304DDDDDDDDDCBBBBDDDDDDDDDD0F
:10508000DDDDDDDD98888888888888887777777780
:10509000778888888555555666666666666666664C
:1050A00066688888833333322222222222222222F7
:1050B0002228888D64656661756C745461736B0019
:1050C00052785461736B0000E85000080000002023
:1050D000B8000000C0340008A0510008B80000204B
:1050E000E0470000D03400080A0000000000000083
:1050F000320014000000000000000000000000006A
:10510000000000000000000000000000000000009F
:10511000000000000000000000000000000000008F
:10512000000000000000000000000000000000007F
:105130000100000010000000000000000024F40046
:10514000000000000000000000000000000000005F
:10515000000000000000000000000000000000004F
:10516000000000000000000000000000000000003F
:10517000000000000000000000000000000000002F
:10518000000000000000000000000000000000001F
:105190000000000000000000AAAAAAAA0000000067
:040000050800018965
:00000001FF
