:020000040800F2
:10000000500500209D0100084B1900082D1800081C
:1000100049190008E1030008851E000800000000DF
:100020000000000000000000000000004F19000860
:1000300095040008000000004D190008511900083F
:10004000B7010008B7010008B7010008B7010008B0
:10005000B7010008B7010008B7010008B7010008A0
:10006000B7010008B7010008B7010008B701000890
:10007000B7010008B7010008B7010008B701000880
:10008000B7010008B7010008B7010008B701000870
:10009000B7010008B7010008B7010008B701000860
:1000A000B7010008B7010008B7010008B701000850
:1000B000B7010008E1190008B7010008B7010008FE
:1000C000B7010008B7010008B7010008B701000830
:1000D000B7010008B7010008B7010008B701000820
:1000E000B7010008B7010008B7010008B701000810
:1000F000B7010008B7010008B7010008B701000800
:10010000B7010008B7010008B7010008B7010008EF
:10011000B7010008B7010008B7010008B7010008DF
:10012000B7010008E5030008B7010008B70100089F
:10013000B7010008B7010008B7010008B7010008BF
:10014000B7010008B7010008B7010008B7010008AF
:10015000B7010008B7010008B7010008B70100089F
:10016000B7010008B7010008B7010008B70100088F
:10017000B7010008B7010008B7010008000000003F
:10018000B7010008B7010008DFF80CD000F082F8D2
:1001900000480047C51E000850050020064880475B
:1001A00006480047FEE7FEE7FEE7FEE7FEE7FEE75C
:1001B000FEE7FEE7FEE7FEE7C51900088901000833
:1001C0002DE9F05F0546002092469B46884606468C
:1001D000814640241BE0284641464746224600F01F
:1001E00048F853465A46C01A914110D31146184652
:1001F000224600F02FF82D1A67EB01084F462246E1
:100200000120002100F026F817EB00094E41201EC6
:10021000A4F10104DFDC484631462A464346BDE8E6
:10022000F09FD2B201E000F8012B491EFBD27047CB
:100230000022F6E710B513460A4604461946FFF7B2
:10024000F0FF204610BD421C10F8011B0029FBD115
:10025000801A7047202A04DB203A00FA02F10020BD
:1002600070479140C2F1200320FA03F319439040F4
:100270007047202A04DB203A21FA02F0002170475F
:1002800021FA02F3D040C2F12002914008431946FE
:1002900070470000064C074D06E0E06840F001039F
:1002A00094E8070098471034AC42F6D3FFF770FF8C
:1002B000601F0008801F0008464910B54A6822F4F4
:1002C00040324A604A6843681A434A6001684A6893
:1002D00022F480724A6001684A68036942EA032294
:1002E0004A6001684A6822F040724A6001684A68C0
:1002F00083681A434A6001688A6822F400628A604F
:1003000001688A68C3681A438A60816A6FF0706204
:10031000D14201688A6822F070628A6001688A6846
:100320000CD0836A1A438A6001688A6822F04052BE
:100330008A6001688A68C36A1A4301E022F0405269
:100340008A6001688A6822F002028A6001688A680D
:10035000037E42EA43028A6090F820100029016877
:100360004A680FD042F400624A6001684A6822F489
:1003700060424A6001684A68174C436A04EB4333A1
:100380001A4301E022F400624A600168CA6A22F45A
:100390007002CA620168CA6A838B104C04EB035373
:1003A0001A43CA6201688A6822F400728A6001688E
:1003B0008A6890F8303042EA43228A6001688A688D
:1003C00022F480628A6001688A68406942EA80207B
:1003D000886010BD0023014000E0FFFF0000F0FF37
:1003E000FEE70000014800F057B90000F0000020CF
:1003F00001681823CAB2103AB2FBF3F2054B6FF34F
:100400000901032A9B5CC36500D9091D8165084663
:1004100070470000401F000810B5014600208B699E
:100420008A6A4FF0C07453B1B3F5005F15D072B152
:10043000012A0CD0022A0AD0032A09D104E01AB1F9
:10044000012A06D0022A03D1C96AC90100D50120B8
:1004500010BDC96AA142FAD010BD002AF7D0012A06
:10046000F2D0022AF3D0032AF3D010BD30B50468CD
:10047000256825F480252560046863608368402B27
:10048000036803D099600068C26030BD9A6000685C
:10049000C16030BD7047704778B50024009490F873
:1004A0003C20012A19D0012280F83C200A68072349
:1004B0000568092A13D9EE680A3A02EB4202934012
:1004C0009E43EE600B788A680A3B03EB43039A4035
:1004D0000368DD682A43DA6010E0022078BD2E69E7
:1004E00002EB420293409E432E610B788A6803EB35
:1004F00043039A4003681D692A431A614A681F230F
:10050000072A13D205686E6B521E02EB82029340DB
:100510009E436E630B790A885B1E92B203EB8303E2
:100520009A4003685D6B2A435A6327E005680D2AE9
:1005300012D22E6BD21F02EB820293409E432E6397
:100540000B790A88DB1F92B203EB83039A4003689E
:100550001D6B2A431A6311E0EE6A0D3A02EB820228
:1005600093409E43EE620B790A880D3B92B203EBF7
:1005700083039A400368DD6A2A43DA62164B0568F2
:10058000144A9D4206D10D68122D03D1556845F4D9
:100590008005556005689D4218D10B68102B01D06D
:1005A000112B13D1536843F40003536009681029D9
:1005B0000CD10A490A4A0968B1FBF2F101EB810149
:1005C000490000E0491E00910029FBD180F83C4021
:1005D000002078BD002301400020014010000020D1
:1005E00040420F0070B504004FF0000503D0206CAE
:1005F000002610B107E0012070BD204600F01CF875
:10060000666484F83C60206CC00610D4206C20F432
:10061000885040F0020020642046FFF74DFE6664DB
:10062000206C20F0020040F00100206400E0012571
:1006300084F83C60284670BD10B586B0044614218D
:100640006846FFF7F5FD1149206888421CD1104823
:100650000021026842F480720260006800F4807039
:1006600005900B481438026842F0010202600068ED
:1006700000F001000590012000900320CDE9010168
:100680006946044800F07AF906B010BD0020014028
:1006900044380240000002402DE9F84304464FF080
:1006A0000009CDF8009063484FF41651A56D00681D
:1006B000B0FBF1F72E6894F85C10082000FA01F105
:1006C00031420FD021680A6852070BD50A6822F020
:1006D00004020A6094F85C108840A860606D40F0E5
:1006E0000100606594F85C104FF0010808FA01F011
:1006F000304208D021684969090604D5A860606DB8
:1007000040F00200606594F85C100420884030429C
:1007100008D021680968890704D5A860606D40F099
:100720000400606594F85C1010208840304218D0B6
:1007300021680968090714D5A86020680168490381
:1007400004D50068000308D5A16C07E00168C9055D
:1007500003D4016821F008010160216C09B1204631
:10076000884794F85C1020208840304231D02168BE
:100770000968C9062DD5A86094F8350005282068B9
:10078000016806D0490347D5006800031DD4616C99
:100790001CE021F0160101602068416921F0800110
:1007A0004161206C08B9A06C20B12068016821F07B
:1007B0000801016094F85C103F208840A86084F82C
:1007C000349084F83580216D1FE0E16B09B120463B
:1007D0008847606D00282BD0606DC00714D00520BD
:1007E00084F835002068016821F00101016000985B
:1007F000401C0090B84203D820680068C007F6D1BA
:1008000084F8349084F83580E16C002910D001B070
:100810002046BDE8F04308470168C905D5D4016802
:1008200021F01001016084F8349084F83580CCE721
:10083000BDE8F883100000202DE9F041044600F0E7
:1008400085F906465CB1002584F83450022084F80E
:1008500035002068016821F0010101600DE00120F0
:10086000BDE8F08100F072F9801B052805D9202031
:100870006065032084F83500F2E720680068C0074F
:10088000F0D12268116820480140D4E901031843DF
:10089000D4E903363343184363691843A369184303
:1008A000E3691843236A18430843616A042903D1A2
:1008B000D4E90B1319430843106020684069666A45
:1008C00020F0070130460E43012704280CD1A06A0E
:1008D0000643E06A40B12046FFF79EFD20B140206C
:1008E000606584F83570BAE7206846612046FFF7F6
:1008F0007FFD94F85C203F2191408160656584F81C
:1009000035700020ACE700003F8010F02DE9F04189
:100910000446866D90F83400002501280DD0012092
:1009200084F8340094F835700020012F07D084F843
:10093000340002252846BDE8F0810220FBE70227AB
:1009400084F8357060652046FFF790FD94F85C10E0
:100950003F208840B0602068016841F016010160C6
:10096000206C20B12068016841F008010160206816
:10097000016841F001010160DCE700002DE9F84F5A
:1009800000224FF0010803254FF00F0E0B6808FA04
:1009900002F42340A3426ED14E68012E05D0022EF0
:1009A00003D0112E01D0122E12D186684FEA420CCC
:1009B00005FA0CF7BE43CF6807FA0CF73743876098
:1009C0004668A6430C79C4F3001494403443446051
:1009D000C668570005FA07FC8C6826EA0C06BC407E
:1009E0003443C4604C68022C01D0122C13D1D408BB
:1009F00000EB8404A346D4F8209054074FEAD46A4D
:100A00000EFA0AF629EA06090E6906FA0AF646EA15
:100A10000906CBF8206006680C7926EA0C0604F07B
:100A20000304BC40344304604C68E40065D5364C94
:100A3000266846F480462660246822F0030604F403
:100A400080440094314C3444A446D4F808489607B6
:100A5000370F0EFA07F6B4432D4EB04201D10026EF
:100A600024E02C4EB04201D101261FE02A4EB042B4
:100A700002D102261AE040E0284EB04201D10326FE
:100A800014E0274EB04201D104260FE0254EB042BB
:100A900001D105260AE0244EB04201D1062605E028
:100AA000224EB04201D1072600E00826BE40264370
:100AB000CCF808681E4E34684F689C43FF0300D58D
:100AC0001C4334601A4C241D26684F689E43BF03A4
:100AD00000D51E432660164E083634684F689C4386
:100AE000FF0200D51C433460114E0C3634684F6849
:100AF0009C43BF0200D51C433460521C102AFFF4F3
:100B000045AFBDE8F88F0000443802400030014096
:100B1000000002400004024000080240000C0240B5
:100B2000001002400014024000180240001C024065
:100B3000003C0140426931EA020200D109048161AE
:100B400070470AB1816170470904FBE7014880687A
:100B500070470000040000200248816802781144B8
:100B600081607047040000200B4810B5016841F413
:100B700000710160016841F480610160016841F425
:100B800080710160032000F06FF8002000F006F88B
:100B900000F024F8002010BD003C024070B50D4D5F
:100BA00004464FF47A712878B1FBF0F00A490968DD
:100BB000B1FBF0F000F004FB48B9102C07D2002282
:100BC0002146501E00F030F800206C6070BD0120FE
:100BD00070BD000004000020100000200A4808B585
:100BE000016841F480410160006800F48040009099
:100BF0000548001F016841F080510160006800F065
:100C00008050009008BD000044380240002809DBF5
:100C100000F01F02012191404009800000F1E02016
:100C2000C0F8001170470000F0B40E4B1B680C4672
:100C3000C3F30223C3F10705042D00D90425191DB0
:100C4000072901D2002300E0DB1E012606FA05F188
:100C5000491E214099409E40761E16403143F0BC0B
:100C600001F011B90CED00E0064900F00702086838
:100C70004FF6FF03184040EA0220034A1043086081
:100C8000704700000CED00E00000FA052DE9F04788
:100C90000E46050065D0DFF81481D8F80000F7B2E1
:100CA00000F00F00B04207D288F80070D8F80000BA
:100CB00000F00F00B04254D128683D4C810712D596
:100CC000400703D5206840F4E050206028780007F2
:100CD00003D5206840F4604020602068A96820F0B7
:100CE000F000084320602878C0072DD0304968689C
:100CF0000839012812D0022813D0032811D009681E
:100D0000890700292DDA216821F0030101432160C0
:100D1000FFF71CFF814641F2883A0EE0096889031B
:100D2000EFE709688901ECE7FFF710FFA0EB090185
:100D3000514502D90320BDE8F0872068696800F0BA
:100D40000C00B0EB810FEFD1D8F80010404601F055
:100D50000F01B14207D90770006800F00F00B042E0
:100D600001D00120E7E72878400705D52068E96829
:100D700020F4E050084320602878000706D520685A
:100D8000296920F4604040EAC100206000F038F892
:100D90002168084AC1F30311515CC8400649086044
:100DA00006480068FFF7FAFE0020C4E7003C024056
:100DB00008380240481F00081000002008000020EA
:100DC0000448054900680968044AC1F38221515C5E
:100DD000C84070471000002008380240581F000823
:100DE0000448054900680968044AC1F34231515C6E
:100DF000C84070471000002008380240581F000803
:100E0000154810B5006810F00C02144813D01449AE
:100E1000042A0FD0082A0ED10F4C241F2268236801
:100E200002F03F025B0207D52068C0F38810A0FBE8
:100E3000010106E0084610BD2168C1F38811A1FB3D
:100E400000010023FFF7BCF92168C1F30141491CEF
:100E50004900B0FBF1F010BD083802400024F40056
:100E600040787D012DE9F84F04006ED02078DFF83E
:100E70003C93C007A9F104054AD009F104000168B8
:100E8000C1F38101012908D00068C0F38100022864
:100E90000AD1D9F80000400206D52868800337D56A
:100EA00060680028E1D033E06068B0F5803F10D082
:100EB000B0F5A02F286810D020F480302860286872
:100EC00020F4802028606068A8B1FFF73FFE064646
:100ED0000DE0286840F48030F4E740F4802028607A
:100EE000F7E700BFFFF732FE801B642873D828683D
:100EF0008003F7D50CE0FFF729FE064605E000BFAA
:100F0000FFF724FE801B6428F0D828688003F7D4FC
:100F10002078DFF89C8280074FF0000A3ED5A34876
:100F2000001D016811F00C0F08D00068C0F38100AB
:100F300002280BD1D9F80000400207D428688007A6
:100F400016D5E068012800D112E02BE1E068B8B1C5
:100F50000120C8F80000FFF7F9FD064605E000BFD4
:100F6000FFF7F4FD801B0228C0D828688007F7D55A
:100F70002868216920F0F80040EAC10028600DE0EF
:100F8000C8F800A0FFF7E2FD064604E0FFF7DEFD2B
:100F9000801B02281FD828688007F7D42078000714
:100FA00022D5824E83486169703671B1012101609A
:100FB000FFF7CCFD074604E0FFF7C8FDC01B022881
:100FC00009D830688007F7D50EE0C0F800A0FFF719
:100FD000BDFD074605E082E0FFF7B8FDC01B022813
:100FE0007DD830688007F7D42078400768D5DFF8CF
:100FF000BCB100270BF13C0BDBF80000C0000BD4A8
:10100000DBF8001041F08051CBF80010DBF8000055
:10101000012700F080500090674E3068C00510D462
:10102000306840F480703060FFF790FD009005E07C
:10103000FFF78CFD0099401A022850D83068C0058F
:10104000F6D55A4EA0686C3601280FD005283068B6
:1010500010D020F001003060306820F004003060D3
:10106000A068B8B1FFF772FD00900FE0306840F063
:101070000100F4E740F004003060F7E7FFF766FD99
:101080000099411A41F28830814266D83068800761
:10109000F4D50EE0FFF75AFD009007E0FFF756FD8C
:1010A0000099411A41F28830814256D83068800751
:1010B000F4D42FB1DBF8001021F08051CBF80010F0
:1010C000A069C8B33949091D0968C1F38101022922
:1010D0004AD00228504607D0C8F8600000E03CE043
:1010E000FFF734FD04463BE04746C8F86000FFF7D1
:1010F0002DFD064605E000BFFFF728FD801B0228F6
:101100002BD828688001F7D4D4E907010843A16AE5
:101110002A4A490802EB0141626A41EA8211084306
:1011200094F82C1040EA0161C9F8001001203866DB
:10113000FFF70CFD044606E036E000BFFFF706FDB2
:10114000001B022809D828688001F7D52CE000BFD1
:10115000FFF7FCFC001B022802D90320BDE8F88F32
:1011600028688001F4D41FE00128F7D0D9F80000E6
:10117000E26900F48001914214D1226A00F03F013B
:1011800091420FD147F6C071626A0140914209D184
:10119000A26A00F44031914204D1E16A00F070602B
:1011A000884201D00120D9E70020D7E70438024067
:1011B00000004742800E4742007000400000FFFFE1
:1011C00010B5401EB0F1807F01D3012010BD4FF05B
:1011D000E02460610F21601700F055FE0020A0613F
:1011E00007202061002010BD7047704770B590F84F
:1011F0003C20012A32D0012480F83C40022280F8B1
:101200003D2003685A689D6822F070060A683243E0
:101210005A60134B02689A4214D0B2F1804F11D039
:10122000104B9A420ED0104B9A420BD00F4B9A4261
:1012300008D00F4B9A4205D00E4B9A4202D00E4B6B
:101240009A4204D1496825F080031943916080F8DF
:101250003D40002180F83C10084670BD022070BD62
:10126000000001400004004000080040000C004065
:101270000004014000400140001800400168CA68B5
:1012800042F00102CA600068816801F00701062986
:1012900003D0016841F001010160002070477047F0
:1012A00070B50446006801694FF00005C94389071D
:1012B00015D4C168C943890711D4E91E0161012011
:1012C0002077206880698007204602D0FFF7E7FF7B
:1012D00004E000F0C3F8204600F0FAF82577206813
:1012E0000169C943490717D4C168C943490713D4E1
:1012F0006FF004010161022020772068806910F4FA
:10130000407F204602D0FFF7CAFF04E000F0A6F8B5
:10131000204600F0DDF8257720680169C9430907F8
:1013200016D4C168C943090712D46FF008010161DE
:10133000042020772068C0698007204602D0FFF78C
:10134000AEFF04E000F08AF8204600F0C1F82577EF
:1013500020680169C943C90617D4C168C943C906D1
:1013600013D46FF010010161082020772068C06954
:1013700010F4407F204602D0FFF791FF04E000F018
:101380006DF8204600F0A4F8257720680169C9436C
:10139000C90708D1C168C943C90704D1891E0161C1
:1013A000204600F097F820680169C943090609D46E
:1013B000C168C943090605D46FF080010161204668
:1013C000FFF712FF20680169C943490609D4C168C3
:1013D000C943490605D46FF040010161204600F081
:1013E000A5F820680169C94389060BD4C168C943BF
:1013F000890607D46FF0200101612046BDE87040E6
:10140000FFF7F3BE70BD70B5044690F83C000128AC
:101410000DD0012584F83C50022084F83D0042B1F3
:10142000042A0AD0082A0CD00C2A11D10DE002207F
:1014300070BD206800F03EFB0AE0206800F06AFB07
:1014400006E0206800F09CFB02E0206800F0CCFB86
:1014500084F83D50002084F83C0070BD704710B502
:10146000040003D094F83D0010B107E0012010BD46
:10147000002084F83C00204600F00CF8022084F89C
:101480003D00211D206800F0B1FA012084F83D00E4
:10149000002010BD08B500680B49884212D10B48E6
:1014A000016841F0020101600068002200F00200C2
:1014B000009011461D20FFF7B7FBBDE808401D2036
:1014C000FFF7A4BB08BD0000000400404038024004
:1014D000704700001FB50FA30FCB8DE80F006846C3
:1014E000FEF7B1FE82B2642369460E4800F041F96E
:1014F0000D4C4FF480512046FFF71CFB4FF4005178
:101500002046FFF717FB4FF480412046FFF712FB00
:101510001FBD0000434F4E45435441444F0D0A0048
:10152000000000009C000020000C02407047704743
:1015300070B5040004D094F83900002510B106E01D
:10154000012070BD84F83850204600F023F8242094
:1015500084F839002068C16821F40051C160204638
:1015600000F0CAFB2068016921F490410161206804
:10157000416921F02A0141612068C16841F40051AC
:10158000C160E563202084F8390084F83A00002027
:1015900070BD000070B586B0064614216846FEF79F
:1015A00047FE1F493068884238D11E48002501682F
:1015B00041F020010160006800F02000059019480A
:1015C0001438016841F0040101600068694600F0C8
:1015D00004000590C02000900220CDE90105032001
:1015E0000390082004901048FFF7C8F9104C0F48EA
:1015F00020608005C4E901054FF48060C4E9035010
:1016000080106561C4E90650256220466562FFF7D7
:1016100013F908B1FEF73FFF7463A66306B070BD0F
:10162000001401404438024000080240286402408F
:10163000F0000020F8B5044690F83A0020283CD18C
:10164000C1B3BAB394F83800012836D0012084F829
:101650003800A162A2850025E563222084F83A00C3
:10166000636B1748D863636B16481864636B16483E
:10167000D864606B134605650846666B21680246B0
:101680003046091DFFF742F9206801684168009162
:1016900084F83850C16841F48071C16020684169A4
:1016A00041F0010141612068416941F0400141611F
:1016B0000020F8BDFFE70120FBE70220F9E700006A
:1016C000831C0008BF1C0008391C000890F83A3041
:1016D000202B22D1F9B1F2B190F83830012B1CD077
:1016E00081628285C2850021C163222280F83A206E
:1016F00080F838100168CA6842F48072CA600168D4
:101700004A6942F001024A610068C16841F0200163
:10171000C160002070470120704702207047000020
:1017200010B5104C104964232278A1F1400000F05C
:1017300020F80D4A2078617811540A290AD0401CFB
:101740002070084908480122491CBDE81040403873
:10175000FFF7BCBF4FF400410448FFF7EBF900204E
:10176000EEE7000000000020DC000020000C02403A
:1017700070472DE9F843044690F839001F46164695
:101780000D46202850D1B5B1AEB194F838000128EB
:101790004AD0012084F838004FF00008C4F83C809B
:1017A000212084F83900FFF7D1F9A6848146E68428
:1017B00084F8388026E00120BDE8F883E08C401EE4
:1017C000E084A0684B46B0F5805F4FF000024FF018
:1017D00080012046009703D000F022FBE8B90DE01D
:1017E00000F01EFBC8B928882168C0F308004860D3
:1017F000206908B16D1C05E0AD1C03E0216815F8F7
:10180000010B4860E08C0028D8D14B4600224021D3
:101810002046009700F004FB08B10320CCE720200D
:1018200084F839000020C7E70220C5E7FEE7000082
:101830007FB5002410480094019402940D4903944C
:10184000C0E9001484600461047680F820400B49EC
:10185000C0E90A140125C561C46080F830404561C3
:10186000FEF7C0FECDE90045694603480294FEF745
:1018700013FE7FBD00200140140000200100000F76
:1018800070B586B014216846FEF7D2FC16480024D5
:10189000016841F001010160016801F00101059159
:1018A000016841F008010160016801F0080105913B
:1018B000016841F00401016000680C4E00F0040072
:1018C0004FF470450590002229463046FFF739F95C
:1018D00001200095CDE90104694630460394FFF7E5
:1018E0004DF806B070BD000030380240000C0240D8
:1018F00010B58AB0002407941C2168460894FEF7AE
:1019000097FC10480E49016042F20F71C0E90114C2
:1019100045F25F41C0E903148461FFF7A0FD07941D
:1019200007A908480894FFF761FC00940194029409
:101930000022694603480494FFF765FD0AB010BD14
:10194000000400405C000020FEE7704770477047CD
:10195000FFF702B910B592B030216846FEF768FC77
:1019600014210CA8FEF764FC14480024016841F01F
:1019700080510160006800F08050119010480168AB
:1019800041F4804101600068069400F480401190A9
:101990000220009001200390102004906846FFF779
:1019A00061FA0F20CDE90C040E940F9400210CA8CD
:1019B0001094FFF76BF912B010BD000040380240E0
:1019C000007000400548016841F47001016003495E
:1019D0004FF00060803908607047000088ED00E03B
:1019E0000148FFF75DBC00005C000020F0B5026814
:1019F000254C264D264E274F274B4FF0804CA042BA
:101A000009D0604507D0A84205D0B04203D0B84203
:101A100001D0984204D122F0700E4A6842EA0E02C8
:101A2000A0421BD0604519D0A84217D0B04215D0B3
:101A3000B84213D0984211D0184DA8420ED0184D7C
:101A4000A8420BD0174DA84208D0174DA84205D088
:101A5000164DA84202D0164DA84203D122F440757B
:101A6000CA682A434D6922F080022A4302608A68CC
:101A7000C2620A688262A04201D0984201D109691B
:101A8000016301214161F0BD0000014000040040FC
:101A900000080040000C00400004014000400140EC
:101AA000004401400048014000180040001C004074
:101AB00000200040F0B5026A22F001020262036ACF
:101AC00042688469124E24F073050C682C4323F09D
:101AD00002058B682B430D4DA84201D0B04205D1C1
:101AE00023F00807CB683B4323F00403A84201D04E
:101AF000B04205D14D6922F4407215438A692A43E8
:101B000042608461496841630362F0BD00000140A6
:101B100000040140F0B5026A22F010020262026A7B
:101B2000436884690D6824F4E64444EA05248D681A
:101B300022F0200242EA05120F4D104EA84201D0B9
:101B4000B04206D1CF6822F0800242EA071222F0AA
:101B50004002A84201D0B04207D14D6923F440634E
:101B600043EA85038D6943EA8503436084614968DC
:101B700081630262F0BD00000000014000040140EA
:101B8000F0B5026A22F480720262026A4368C46994
:101B900022F4007224F073050C68124E2C438D68F9
:101BA00042EA05220E4DA84201D0B04206D1CF68CC
:101BB00022F4006242EA072222F48062A84201D0A5
:101BC000B04207D14D6923F4405343EA05138D69B0
:101BD00043EA05134360C4614968C1630262F0BD12
:101BE000000001400004014030B5026A22F4805236
:101BF0000262046A4268C3690D6823F4E64343EA5B
:101C000005238D6824F4005444EA0534084DA842A5
:101C100002D0084DA84204D14D6922F4804242EA24
:101C200085124260C36149680164046230BD0000EE
:101C3000000001400004014070B5846B20684069D9
:101C400094F83910C0F3C0100025212904D118B12F
:101C5000E584204600F046F82068406994F83A1080
:101C6000C0F38010222904D118B1E585204600F088
:101C70002BF8E06B40F01000E0632046FFF757FCC4
:101C800070BD10B50146806B09680968C90513D499
:101C90000021C1850168CA6822F48072CA600168A7
:101CA0004A6922F001024A6101684A6922F0400251
:101CB0004A61202180F83A10FFF732FD10BD10B5BF
:101CC000806BFFF755FD10BD0168CA6822F4907261
:101CD000CA6001684A6922F001024A61202180F845
:101CE0003A1070470168CA6822F0C002CA60202119
:101CF00080F83910704700002DE9F0410446006873
:101D00000169E26821F44051114301612169A06831
:101D1000E26908436169114308432168CA6849F2CE
:101D20000C639A430243CA6020684169A26921F4A6
:101D3000407111434161E069192764253226B0F5ED
:101D4000004F354A354920684FF0000806D08842D8
:101D500001D0904236D1FFF743F835E0884201D0F8
:101D6000904202D1FFF73CF801E0FFF729F86168E3
:101D70004A18A0FB070148EB0803FEF721FA0146C9
:101D8000B0FBF5F00201B1FBF5F06FF0180358431A
:101D900001EB800006EBC000B0FBF5F000F0F800AE
:101DA00002EB4002B1FBF5F0584301EB800006EB7B
:101DB000C000B0FBF5F000F0070021681044886017
:101DC000BDE8F081FEF7FCFF61688B0F8A00A0FB85
:101DD0000701FEF7F5F90146B0FBF5F06FF01802C8
:101DE000504301EB800006EB0010B0FBF5F000F073
:101DF000F002B1FBF5F002EB0012B1FBF5F06FF071
:101E00001803584301EB800006EB0010B0FBF5F01F
:101E100000F00F00D1E70000001401400010014065
:101E20002DE9F041984617460E460446069D1DE0F2
:101E3000681C1BD02DB1FEF789FEA0EB0800A8425C
:101E400014D92068C16821F4D071C160206841694B
:101E500021F001014161202084F8390084F83A0022
:101E6000002084F838000320BDE8F0812068006875
:101E700036EA000004D00020B842D9D00020F3E7B1
:101E80000120F9E7FEE70907090E002804DB00F14D
:101E9000E02080F80014704700F00F0000F1E0200F
:101EA00080F8141D704702E008C8121F08C1002AFC
:101EB000FAD170477047002001E001C1121F002ACB
:101EC000FBD1704708B5FEF74FFEFFF743FDFFF764
:101ED000D7FC17480024016841F4800101600068C4
:101EE000224600F48000009021463920FEF79CFE37
:101EF0003920FEF78BFEFFF79BFCFFF7F9FC0E483D
:101F00000C4901604FF41651C0E901140C21C46062
:101F1000C0E904418461C461FFF70AFB0648403808
:101F2000FFF7ACF9012205490348FFF783FBFEE701
:101F300030380240001401409C00002001000020C5
:101F40000006101600061016000000000000000039
:101F5000010203040607080900000000010203044F
:101F6000801F00080000002014000000A61E0008CA
:101F7000941F0008140000203C050000B61E000855
:101F80000000000001000000100000000000000040
:041F90000024F40035
:040000050800018965
:00000001FF
