:020000040800F2
:10000000380600209D0100087F2900080928000803
:100010007D290008550F0008212F0008000000006E
:10002000000000000000000000000000832900081C
:10003000151000080000000081290008852900082B
:10004000B7010008B7010008B7010008B7010008B0
:10005000B7010008B7010008B7010008B7010008A0
:10006000B7010008B7010008B7010008B701000890
:10007000B7010008B7010008B7010008B701000880
:10008000B7010008B7010008B7010008B701000870
:10009000B7010008B7010008B7010008B701000860
:1000A000B7010008B7010008B7010008B701000850
:1000B000B7010008152A0008B7010008B7010008B9
:1000C000B7010008B7010008B7010008B701000830
:1000D000B7010008B7010008B7010008B701000820
:1000E000B7010008B7010008B7010008B701000810
:1000F000B7010008B7010008B7010008B701000800
:10010000B7010008B7010008B7010008B7010008EF
:10011000B7010008B7010008B7010008B7010008DF
:10012000590F0008650F0008B7010008B701000863
:10013000B7010008B7010008B7010008B7010008BF
:10014000B7010008B7010008B7010008B7010008AF
:10015000B7010008B7010008B7010008B70100089F
:10016000B7010008B7010008B7010008B70100088F
:10017000B7010008B7010008B7010008000000003F
:10018000B7010008B7010008DFF80CD000F0B0FBA1
:1001900000480047ED2F0008380600200648804739
:1001A00006480047FEE7FEE7FEE7FEE7FEE7FEE75C
:1001B000FEE7FEE7FEE7FEE7F929000889010008EF
:1001C0002DE9F05F0546002092469B46884606468C
:1001D000814640241BE0284641464746224600F01F
:1001E00038FA53465A46C01A914110D31146184660
:1001F000224600F01FFA2D1A67EB01084F462246EF
:100200000120002100F016FA17EB00094E41201ED4
:10021000A4F10104DFDC484631462A464346BDE8E6
:10022000F09F40EA01039B0703D009E008C9121FB1
:1002300008C0042AFAD203E011F8013B00F8013BA0
:10024000521EF9D27047D2B201E000F8012B491ECC
:10025000FBD270470022F6E710B513460A46044663
:100260001946FFF7F0FF204610BD30B505462A4677
:100270000B4612F8010B13F8014B08B1A042F8D05D
:100280001CB1002802D06D1CF1E7284630BD421C8D
:1002900010F8011B0029FBD1801A70470FB400B57C
:1002A0008DB010A909900B9000914FF0FF300A908B
:1002B00000200C9005480690054807906A4609A85A
:1002C0000F9900F0DDF90DB05DF814FB9D060008F4
:1002D000BB0600082DE9FF4F087883B09946FF2838
:1002E00005D0491C2D2804D00024002008E000205F
:1002F0000BE00124F9E700EB800003EB4000491C10
:100300000B78FF2BF7D104B14042002302931478FD
:1003100019461D462D2C01D02B2C04D1521C2D2CFE
:1003200013D000240294AA461478FF2C0FD00A257B
:10033000A3FB057801FB05814FF0000C03FB0C11BA
:10034000521CE3194AEB0101EEE70124EAE781447C
:1003500053EA010002D019F5C87F06DA039800219C
:10036000C0E9001107B0BDE8F08F0025AE4E2F4662
:10037000DFF8B882184600F092FACDE90001B9F131
:10038000000002DAC9F1000400E004460023A74A95
:100390001AEB030B42EB045A12E0E00707D02A469F
:1003A00033463846414600F099F9074688462A46C2
:1003B00033461046194600F091F905460E46641082
:1003C000002CEAD1DDE90001B9F1000F5A4653468D
:1003D00006DA00F0F5F93A46434600F0F1F905E097
:1003E00000F07CF93A46434600F078F9029A0AB1E7
:1003F00081F00041039AC2E90001B3E72DE9FF4F04
:100400001F468DB0D7E901464FF0FF382E204546F4
:100410004FF000090B90B9696D1C0E988847396A36
:10042000824688470028F6D1BAF1FF3F0AD024F46B
:10043000D064002E11DDBAF12B0F08D0BAF12D0FC8
:100440000BD102E0404611B08DE744F48064B969F5
:100450006D1C0E9888478246761E6946600501D558
:100460002D2000E02B208DF8000001F1010B0DF193
:10047000200809E0B9696D1C0E98884782460F98DC
:1004800044F40074761E0560002E02DDBAF1300FD0
:10049000F0D00B998A453ED144F0800406E00F99D4
:1004A000681CA9F1010944F400740860B9696D1C65
:1004B000761E0E98884782463028F0D02BE00B99A4
:1004C0008A4505D1200603D444F08004761E18E046
:1004D000504602F045FD08B30DF11301761E44F4B9
:1004E00000748B4508D2AAF130000BF8010B2006EE
:1004F00007D5A9F1010003E0200602D409F10100AB
:100500008146A00502D50F99681C0860B9696D1C69
:100510000E9888478246002ED1DC53E0002E51DD34
:10052000BAF1650F02D0BAF1450F4BD1A00549D5FC
:10053000B9696D1C24F44074761E0E988847824673
:10054000002E0CDD2B2804D0BAF12D0F07D144F476
:100550008074B9696D1C0E9888478246761EE00546
:1005600001D52D2100E02B2108F8011BCDF82C80AE
:1005700021E00DF12901761E44F4007488450CD267
:10058000AAF1300010F0FF0088F8000002D10B99AA
:10059000884509D908F1010806E0E00501D524489D
:1005A00001E042F20F708146B9696D1C0E988847D0
:1005B00082460F980560002E04DD504602F0D0FC04
:1005C0000028D6D1F9690E988847FF208BF80000E3
:1005D00088F800000020069007904B466A4608A95C
:1005E00006A8FFF777FEA00502D46FF001002AE706
:1005F00014F0240F0AD0E00714D1DDE906123868A0
:10060000031D3B600068C0E900120BE0DDE9060154
:1006100000F051F90146E00704D13868021D3A6044
:100620000068016028460EE7000014400000F03F1B
:10063000F1D8FFFF202A04DB203A00FA02F1002063
:1006400070479140C2F1200320FA03F31943904010
:100650007047202A04DB203A21FA02F0002170477B
:1006600021FA02F3D040C2F120029140084319461A
:100670007047000002681144137801601846704703
:10068000D160044951610449116200211161114690
:1006900000F046B97506000815090008426842B125
:1006A000016811F8013B23B1521EC0E9001218463F
:1006B00070470121C160881E704742685AB1C36803
:1006C000016843B983688B4205D0491E521CC0E9BA
:1006D0000012002070474FF0FF3070472DE9FE4FA9
:1006E00081EA030404F0004421F0004100944FF03B
:1006F000000B23F0004350EA01045ED052EA0304E9
:100700005BD0C3F30A54C1F30A552C44A4F2F3346A
:100710000194A0FB0254C1F3130141F48011C3F30F
:10072000130343F4801301FB024400FB034E840ACD
:10073000970A44EA815447EA8357A4FB0768029565
:100740008D0A05FB07854FEA932C04FB0C54270503
:10075000029D4FEA065847EA1637B5EB08056EEBDF
:10076000070C870E920E47EA811742EA8312A7FB15
:100770000201B6EB0B0164EB00042B0D43EA0C33D2
:100780005E1844EB1C50DA465146E7FB0201C5F304
:1007900013044FEA0B3343EA14534FEA0432019C2B
:1007A00043EA0603A4F10C040294009CCDE900B4D2
:1007B00000F092FA03B0BDE8F08F00200146F9E79F
:1007C0002DE9F04D81EA030404F0004B21F00045CF
:1007D00014464FF0000A23F0004150EA050220D0F1
:1007E00054EA01021DD0C5F30A570246C5F31303AC
:1007F000C1F31300C1F30A5640F4801543F480138B
:10080000A7EB0608101BD64608F2FD3873EB05006F
:1008100002D308F1010801E092185B41B8F1000F22
:1008200003DA00200146BDE8F08D00204FF480116E
:10083000064684460EE0171B73EB050705D3121B13
:1008400063EB050306434CEA010C49084FEA30000C
:1008500092185B4150EA0107EDD152EA030012D031
:1008600082EA040083EA0501084305D0101BAB416E
:1008700006D20122002306E000224FF0004302E0EE
:100880006FF0010253101AEB06004CEB085110EB0D
:100890000A0041EB0B01BDE8F04D00F00EBA0EB5B9
:1008A00040F2334202920022CDE90022134600F0CA
:1008B00013FA03B000BD01F0004330B421F0004151
:1008C00050EA010206D00A0DA2F56072C1F31301CD
:1008D000002A02DC30BC00207047440F44EAC10407
:1008E000C100E01830BC00EBC25000F0AFB900000E
:1008F000064C074D06E0E06840F0010394E807006D
:1009000098471034AC42F6D3FFF742FC3C31000864
:100910005C310008C0B24FF4F05100F02BBA000077
:100920002DE9F34F8BB04FF0000801F10C000C469D
:100930004FF0010B46460DF1080A01906269012152
:1009400001989047051E2DD0252D2CD0216A88476F
:10095000C0B16269012101989047216A8847002847
:10096000F7D1411E62690198904700E0761CA169A9
:100970000B988847216A88470028F7D1E1690B98CE
:100980008847DBE7A1690B9888470746A84201D151
:10099000761CD3E7E1690B9888477F1C02D1B8F138
:1009A000000F6FD046E1002762693D463946019845
:1009B00090472A2804D162690121019890470125B6
:1009C000DFF884926269012101989047A0F130011B
:1009D0000A290AD24F45E5DC07EB870100EB410706
:1009E000303FDFD445F01005ECE7E90601D46FF0A5
:1009F00000476C280AD04C2814D0682815D06A28E3
:100A00000DD074281CD07A281AD01DE0626901210B
:100A1000019890476C2802D045F0040514E045F099
:100A200002050DE045F020050AE062690121019808
:100A30009047682802D045F0080505E045F40065B8
:100A40006269012101989047C4E9015765283DD0AA
:100A500019DC58287AD00CDC452837D004DC25284E
:100A600026D0412831D131E046282FD047282CD13B
:100A70002CE05B2877D0612828D063287CD06428BC
:100A800023D15AE0D0E06F2848D008DC66281DD07A
:100A900067281BD0692821D06E2816D127E070283E
:100AA00045D0732868D0752847D078280DD14DE0FF
:100AB000A1690B988847054625283FF469AFE1698D
:100AC0000B9888476D1C3FF46AAFB3E023466A4633
:100AD0006FF001000B99FFF791FC9EE045F040009C
:100AE0006060A80723464FF0000236D43EE0E807D6
:100AF0007FF447AF2068011D21600068290501D5FA
:100B000006701BE7290701D5068017E7A90703D55B
:100B1000F117C0E9006111E706600FE745F04000FA
:100B20006060A80723464FF0080216D41EE040F686
:100B30000E0125EA0100606016E045F040006060AB
:100B4000A80723464FF00A0207D40FE045F0400003
:100B50006060A80708D5234610226FF001000B99AA
:100B6000AFF3008059E007E0234610226FF0010048
:100B70000B99AFF3008050E04FF000094F464B4611
:100B8000632802D05B2806D040E0E80601D40120AB
:100B9000A06001273AE062690121019890475E2830
:100BA00005D14FF0010962694946019890472169D2
:100BB00039B900210A46534643F82120491C082927
:100BC000FADBB0B3216969B9C11700EBD1625311E7
:100BD0000AEB830122F01F02821A01200B68904069
:100BE00003430B6062690121019890475D28E8D1B9
:100BF000B9F1000F09D00020514651F82020D2430E
:100C000041F82020401C0828F7DB02AB2246009761
:100C10006FF001000B99AFF3008000280CDA401C44
:100C200008D1BBF1000F05D04FF0FF300DB0BDE88B
:100C3000F08FFFE74046F9E7E90701D108F1010825
:100C400006444FF0000B79E6CCCCCC0C0029A8BFB1
:100C50007047401C490008BF20F00100704710B4E5
:100C6000B0FA80FC00FA0CF050EA010404BF10BC9A
:100C7000704749B1CCF1200421FA04F411FA0CF1C7
:100C800018BF012121430843A3EB0C01CB1D4FEA00
:100C900000614FEA102042BF002010BC704700EBFB
:100CA000C35010440029A4BF10BC7047401C490029
:100CB00008BF20F0010010BC704710B5141E73F17E
:100CC000000408DA401C41F1000192185B411A430C
:100CD00001D120F0010010BD2DE9F04D92469B4658
:100CE00011B1B1FA81F202E0B0FA80F220329046FE
:100CF000FFF7A0FC04460F4640EA0A0041EA0B0158
:100D000053465A46084313D0114653EA010019D0FE
:100D1000C8F140025046FFF79CFC05460E4650467F
:100D200059464246FFF786FC084305D0012004E0FF
:100D300020463946BDE8F08D0020054346EAE076BE
:100D40002C4337430A986305E40AA0EB080000220D
:100D5000FD0A44EA47540A3002D500200146E9E77B
:100D6000010510196941DDE9084500196941BDE82F
:100D7000F04DA2E77F2801D9002208E0064A02EBE5
:100D80005002C007127800D1120902F00F020120B0
:100D90009040084070470000FC30000810B5014644
:100DA000806B026C12F0500F05D0026CD20626D573
:100DB00000F0F7F910BD016C41F4007101640168A5
:100DC0008A6812F0405F17D1027EAAB9CA6A12F48B
:100DD000700F02D08A6852050ED44A6822F02002B1
:100DE0004A60016C21F480710164016CC90403D470
:100DF000016C41F00101016400F0B4F910BD806B99
:100E0000C26CBDE810400846104710B5806B402109
:100E10000164416C41F00401416400F0C2F910BD6D
:100E200010B5806B00F0BCF910BD0000464910B54C
:100E30004A6822F440324A604A6843681A434A606A
:100E400001684A6822F480724A6001684A6803694E
:100E500042EA03224A6001684A6822F040724A600E
:100E600001684A6883681A434A6001688A6822F404
:100E700000628A6001688A68C3681A438A60816A6E
:100E80006FF07062D14201688A6822F070628A60F5
:100E900001688A680CD0836A1A438A6001688A688C
:100EA00022F040528A6001688A68C36A1A4301E0EE
:100EB00022F040528A6001688A6822F002028A6049
:100EC00001688A68037E42EA43028A6090F8201033
:100ED000002901684A680FD042F400624A60016844
:100EE0004A6822F460424A6001684A68174C436AC3
:100EF00004EB43331A4301E022F400624A600168C4
:100F0000CA6A22F47002CA620168CA6A838B104CF2
:100F100004EB03531A43CA6201688A6822F4007220
:100F20008A6001688A6890F8303042EA43228A6019
:100F300001688A6822F480628A6001688A68406970
:100F400042EA8020886010BD0023014000E0FFFFDE
:100F50000000F0FFFEE70000014800F0DBBA0000EF
:100F600034010020014800F0D5BA000094010020AF
:100F700001681823CAB2103AB2FBF3F2054B6FF3C3
:100F80000901032A9B5CC36500D9091D81650846D8
:100F900070470000DC30000810B5014600208B6966
:100FA0008A6A4FF0C07453B1B3F5005F15D072B1C7
:100FB000012A0CD0022A0AD0032A09D104E01AB16E
:100FC000012A06D0022A03D1C96AC90100D501202D
:100FD00010BDC96AA142FAD010BD002AF7D0012A7B
:100FE000F2D0022AF3D0032AF3D010BD30B5046842
:100FF000256825F480252560046863608368402B9C
:10100000036803D099600068C26030BD9A600068D0
:10101000C16030BD7047704778B50024009490F8E7
:101020003C20012A19D0012280F83C200A680723BD
:101030000568092A13D9EE680A3A02EB4202934086
:101040009E43EE600B788A680A3B03EB43039A40A9
:101050000368DD682A43DA6010E0022078BD2E695B
:1010600002EB420293409E432E610B788A6803EBA9
:1010700043039A4003681D692A431A614A681F2383
:10108000072A13D205686E6B521E02EB8202934050
:101090009E436E630B790A885B1E92B203EB830357
:1010A0009A4003685D6B2A435A6327E005680D2A5E
:1010B00012D22E6BD21F02EB820293409E432E630C
:1010C0000B790A88DB1F92B203EB83039A40036813
:1010D0001D6B2A431A6311E0EE6A0D3A02EB82029D
:1010E00093409E43EE620B790A880D3B92B203EB6C
:1010F00083039A400368DD6A2A43DA62164B056867
:10110000144A9D4206D10D68122D03D1556845F44D
:101110008005556005689D4218D10B68102B01D0E1
:10112000112B13D1536843F400035360096810294D
:101130000CD10A490A4A0968B1FBF2F101EB8101BD
:10114000490000E0491E00910029FBD180F83C4095
:10115000002078BD00230140002001401400002041
:1011600040420F0010B50C4C4FF48051204600F067
:101170001FFC4FF40051204600F01AFC4FF4804150
:10118000204600F015FC0022BDE810404FF4FA6341
:101190001146024800F07AB9000C024060000020BD
:1011A0007047704770B504004FF0000503D0206C05
:1011B000002610B107E0012070BD204600F01CF8A9
:1011C000666484F83C60206CC00610D4206C20F467
:1011D000885040F0020020642046FFF727FE666436
:1011E000206C20F0020040F00100206400E00125A6
:1011F00084F83C60284670BD70B586B00646142160
:101200006846FFF727F81D493068884234D11C48EA
:101210000025016841F480710160006800F480706D
:10122000059017481438016841F001010160006819
:10123000694600F001000590012000900320CDE9EF
:101240000105104800F0D8FA104C0F48C4E9000519
:101250000015A560C4E90350400060618000A061F2
:101260004011C4E907052046656200F023FA08B181
:10127000FFF7D1FEB463A66306B070BD0020014045
:101280004438024000000240106402403401002053
:10129000F8B50E4600210446009190F83C00012864
:1012A00007D0012084F83C0020688368DB0702D067
:1012B00011E00220F8BD836843F0010383603748E2
:1012C000374B0068B0FBF3F000EB400000E0401E3D
:1012D00000900028FBD120688368DB075CD0236C7A
:1012E00040F20165AB4343F48073236440684005DA
:1012F00005D5206C20F4005040F480502064206C10
:10130000C00404D5606C20F00600606400E06164F5
:1013100084F83C10A16B2448224DC863A16B23487C
:101320000864A16B2248C86421686FF0220008603D
:101330002068416841F0806141602068816841F423
:10134000807181602168134632464C31A06B00F0F9
:101350001BFA68681749C006206806D088421BD16E
:10136000816811F0405F13D016E08842F8D0124A2D
:10137000904203D1D1F80423D206F1D00F4A904213
:101380000AD1D1F8041301F01F011029E8D303E0BA
:10139000816841F0804181600020F8BD1400002088
:1013A00040420F00002301409D0D0008210E00085F
:1013B0000B0E0008002001400021014000220140E6
:1013C00070B54379012B1AD00126467102230371AF
:1013D00005682C6840F6FE7393409C43D1E90031C8
:1013E0000B43934023432B6001680B68C024944057
:1013F000A3430B60067100214171084670BD0220B5
:1014000070BD70B5040003D02079002510B105E04F
:10141000012070BD6571204600F008F8022020719F
:10142000256101202071002070BD000010B586B03C
:10143000044614216846FEF70DFF114920688842D2
:101440001CD110480021026842F00052026000687E
:1014500000F0005005900B481038026842F001027D
:101460000260006800F00100059030200090032029
:10147000CDE901016946044800F0BEF906B010BD8F
:1014800000740040403802400000024018B5046873
:1014900000940068104421B11430009003600020D3
:1014A00018BD0830F9E730B54279012A16D001227B
:1014B00042710223037103681D6802FA01F4254397
:1014C0001D60002901680B680AD00C6803F48023B2
:1014D00004F46014B3F5802F0FD015E0022030BD66
:1014E0000C6803F0040304F03804042B0CD1382CEE
:1014F0000AD14B6843F0010305E0B4F5601F03D146
:101500004B6843F002034B600271002141710846B1
:1015100030BD00002DE9F84304464FF00009CDF836
:10152000009063484FF41651A56D0068B0FBF1F7C9
:101530002E6894F85C10082000FA01F131420FD0B7
:1015400021680A6852070BD50A6822F004020A6073
:1015500094F85C108840A860606D40F00100606500
:1015600094F85C104FF0010808FA01F0304208D0FE
:1015700021684969090604D5A860606D40F0020041
:10158000606594F85C1004208840304208D02168DF
:101590000968890704D5A860606D40F004006065A3
:1015A00094F85C1010208840304218D021680968F7
:1015B000090714D5A86020680168490304D50068AC
:1015C000000308D5A16C07E00168C90503D40168D0
:1015D00021F008010160216C09B12046884794F888
:1015E0005C1020208840304231D021680968C9064B
:1015F0002DD5A86094F8350005282068016806D02C
:10160000490347D5006800031DD4616C1CE021F03C
:10161000160101602068416921F080014161206C60
:1016200008B9A06C20B12068016821F008010160B0
:1016300094F85C103F208840A86084F8349084F8C7
:101640003580216D1FE0E16B09B120468847606D50
:1016500000282BD0606DC00714D0052084F8350019
:101660002068016821F0010101600098401C009091
:10167000B84203D820680068C007F6D184F83490D7
:1016800084F83580E16C002910D001B02046BDE817
:10169000F04308470168C905D5D4016821F010015D
:1016A000016084F8349084F83580CCE7BDE8F88395
:1016B000140000202DE9F041044600F085F90646AB
:1016C0005CB1002584F83450022084F8350020688D
:1016D000016821F0010101600DE00120BDE8F08109
:1016E00000F072F9801B052805D9202060650320D1
:1016F00084F83500F2E720680068C007F0D122685E
:10170000116820480140D4E901031843D4E90336A5
:101710003343184363691843A3691843E3691843C3
:10172000236A18430843616A042903D1D4E90B13DF
:1017300019430843106020684069666A20F0070179
:1017400030460E43012704280CD1A06A0643E06A04
:1017500040B12046FFF720FC20B14020606584F8AE
:101760003570BAE7206846612046FFF701FC94F81F
:101770005C203F2191408160656584F835700020D0
:10178000ACE700003F8010F02DE9F0410446866D83
:1017900090F83400002501280DD0012084F8340091
:1017A00094F835700020012F07D084F8340002250A
:1017B0002846BDE8F0810220FBE7022784F8357057
:1017C00060652046FFF712FC94F85C103F208840CB
:1017D000B0602068016841F016010160206C20B102
:1017E0002068016841F0080101602068016841F04B
:1017F00001010160DCE700002DE9F84F00224FF005
:10180000010803254FF00F0E0B6808FA02F423407D
:10181000A3426ED14E68012E05D0022E03D0112EA8
:1018200001D0122E12D186684FEA420C05FA0CF74D
:10183000BE43CF6807FA0CF7374387604668A64374
:101840000C79C4F30014944034434460C6685700D4
:1018500005FA07FC8C6826EA0C06BC403443C460D9
:101860004C68022C01D0122C13D1D40800EB840454
:10187000A346D4F8209054074FEAD46A0EFA0AF629
:1018800029EA06090E6906FA0AF646EA0906CBF8BD
:10189000206006680C7926EA0C0604F00304BC40BC
:1018A000344304604C68E40065D5364C266846F441
:1018B00080462660246822F0030604F480440094E5
:1018C000314C3444A446D4F808489607370F0EFA32
:1018D00007F6B4432D4EB04201D1002624E02C4E31
:1018E000B04201D101261FE02A4EB04202D10226A9
:1018F0001AE040E0284EB04201D1032614E0274E02
:10190000B04201D104260FE0254EB04201D1052698
:101910000AE0244EB04201D1062605E0224EB04234
:1019200001D1072600E00826BE402643CCF808680F
:101930001E4E34684F689C43FF0300D51C4334603F
:101940001A4C241D26684F689E43BF0300D51E43D2
:101950002660164E083634684F689C43FF0200D557
:101960001C433460114E0C3634684F689C43BF02F0
:1019700000D51C433460521C102AFFF445AFBDE86B
:10198000F88F00004438024000300140000002405F
:101990000004024000080240000C02400010024017
:1019A0000014024000180240001C0240003C0140AC
:1019B000426931EA020200D10904816170470AB12B
:1019C000816170470904FBE70148806870470000A7
:1019D0000800002002488168027811448160704745
:1019E000080000200B4810B5016841F40071016047
:1019F000016841F480610160016841F48071016017
:101A0000032000F06FF8002000F006F800F024F842
:101A1000002010BD003C024070B50D4D04464FF44F
:101A20007A712878B1FBF0F00A490968B1FBF0F04F
:101A300000F004FB48B9102C07D200222146501EAA
:101A400000F030F800206C6070BD012070BD000017
:101A500008000020140000200A4808B5016841F47D
:101A600080410160006800F4804000900548001F3C
:101A7000016841F080510160006800F080500090E2
:101A800008BD000044380240002809DB00F01F02B6
:101A9000012191404009800000F1E020C0F80011D0
:101AA00070470000F0B40E4B1B680C46C3F30223D2
:101AB000C3F10705042D00D90425191D072901D2FA
:101AC000002300E0DB1E012606FA05F1491E214035
:101AD00099409E40761E16403143F0BC01F021BA79
:101AE0000CED00E0064900F0070208684FF6FF031E
:101AF000184040EA0220034A104308607047000083
:101B00000CED00E00000FA052DE9F0470E46050057
:101B100065D0DFF81481D8F80000F7B200F00F00AC
:101B2000B04207D288F80070D8F8000000F00F002B
:101B3000B04254D128683D4C810712D5400703D5E7
:101B4000206840F4E05020602878000703D5206822
:101B500040F4604020602068A96820F0F00008434D
:101B600020602878C0072DD03049686808390128DE
:101B700012D0022813D0032811D009688907002940
:101B80002DDA216821F0030101432160FFF71CFFDA
:101B9000814641F2883A0EE009688903EFE7096857
:101BA0008901ECE7FFF710FFA0EB0901514502D9CD
:101BB0000320BDE8F0872068696800F00C00B0EBF6
:101BC000810FEFD1D8F80010404601F00F01B1426B
:101BD00007D90770006800F00F00B04201D0012063
:101BE000E7E72878400705D52068E96820F4E05049
:101BF000084320602878000706D52068296920F46A
:101C0000604040EAC100206000F038F82168084ACE
:101C1000C1F30311515CC8400649086006480068DA
:101C2000FFF7FAFE0020C4E7003C024008380240FB
:101C3000E4300008140000200C000020044805498E
:101C400000680968044AC1F38221515CC8407047AA
:101C50001400002008380240F43000080448054908
:101C600000680968044AC1F34231515CC8407047BA
:101C70001400002008380240F4300008154810B560
:101C8000006810F00C02144813D01449042A0FD035
:101C9000082A0ED10F4C241F2268236802F03F024D
:101CA0005B0207D52068C0F38810A0FB010106E0A5
:101CB000084610BD2168C1F38811A1FB0001002373
:101CC000FEF77EFA2168C1F30141491C4900B0FBCF
:101CD000F1F010BD083802400024F40040787D0186
:101CE0002DE9F84F04006ED02078DFF83C93C00750
:101CF000A9F104054AD009F104000168C1F381018A
:101D0000012908D00068C0F3810002280AD1D9F85F
:101D10000000400206D52868800337D56068002897
:101D2000E1D033E06068B0F5803F10D0B0F5A02F6F
:101D3000286810D020F480302860286820F48020A3
:101D400028606068A8B1FFF73FFE06460DE02868EE
:101D500040F48030F4E740F480202860F7E700BFCB
:101D6000FFF732FE801B642873D828688003F7D5FC
:101D70000CE0FFF729FE064605E000BFFFF724FE52
:101D8000801B6428F0D828688003F7D42078DFF817
:101D90009C8280074FF0000A3ED5A348001D0168D1
:101DA00011F00C0F08D00068C0F3810002280BD19D
:101DB000D9F80000400207D42868800716D5E068EB
:101DC000012800D112E02BE1E068B8B10120C8F889
:101DD0000000FFF7F9FD064605E000BFFFF7F4FD40
:101DE000801B0228C0D828688007F7D52868216999
:101DF00020F0F80040EAC10028600DE0C8F800A01B
:101E0000FFF7E2FD064604E0FFF7DEFD801B022837
:101E10001FD828688007F7D42078000722D5824E83
:101E200083486169703671B101210160FFF7CCFD13
:101E3000074604E0FFF7C8FDC01B022809D8306838
:101E40008007F7D50EE0C0F800A0FFF7BDFD0746FC
:101E500005E082E0FFF7B8FDC01B02287DD830689E
:101E60008007F7D42078400768D5DFF8BCB1002799
:101E70000BF13C0BDBF80000C0000BD4DBF80010CA
:101E800041F08051CBF80010DBF80000012700F092
:101E900080500090674E3068C00510D4306840F420
:101EA00080703060FFF790FD009005E0FFF78CFD3B
:101EB0000099401A022850D83068C005F6D55A4E0D
:101EC000A0686C3601280FD00528306810D020F0AB
:101ED00001003060306820F004003060A068B8B1C4
:101EE000FFF772FD00900FE0306840F00100F4E76A
:101EF00040F004003060F7E7FFF766FD0099411AF3
:101F000041F28830814266D830688007F4D50EE00F
:101F1000FFF75AFD009007E0FFF756FD0099411AC0
:101F200041F28830814256D830688007F4D42FB10E
:101F3000DBF8001021F08051CBF80010A069C8B385
:101F40003949091D0968C1F3810102294AD00228D3
:101F5000504607D0C8F8600000E03CE0FFF734FDD1
:101F600004463BE04746C8F86000FFF72DFD0646F3
:101F700005E000BFFFF728FD801B02282BD828684A
:101F80008001F7D4D4E907010843A16A2A4A490825
:101F900002EB0141626A41EA8211084394F82C1075
:101FA00040EA0161C9F8001001203866FFF70CFD16
:101FB000044606E036E000BFFFF706FD001B0228DE
:101FC00009D828688001F7D52CE000BFFFF7FCFC9A
:101FD000001B022802D90320BDE8F88F2868800181
:101FE000F4D41FE00128F7D0D9F80000E26900F42A
:101FF0008001914214D1226A00F03F0191420FD139
:1020000047F6C071626A0140914209D1A26A00F4A8
:102010004031914204D1E16A00F07060884201D001
:102020000120D9E70020D7E70438024000004742EA
:10203000800E4742007000400000FFFF10B5401EB8
:10204000B0F1807F01D3012010BD4FF0E02460612A
:102050000F21601700F065FF0020A06107202061BC
:10206000002010BD7047704770B590F83C20012AE1
:1020700032D0012480F83C40022280F83D200368E1
:102080005A689D6822F070060A6832435A60134B02
:1020900002689A4214D0B2F1804F11D0104B9A428C
:1020A0000ED0104B9A420BD00F4B9A4208D00F4BD8
:1020B0009A4205D00E4B9A4202D00E4B9A4204D15E
:1020C000496825F080031943916080F83D40002164
:1020D00080F83C10084670BD022070BD0000014031
:1020E0000004004000080040000C004000040140D3
:1020F000004001400018004010B5040003D094F8DF
:102100003D0010B107E0012010BD002084F83C0024
:10211000204600F00DF8022084F83D00211D2068C3
:1021200000F07EFC012084F83D00002010BD00007E
:1021300008B500680649884208D10648016841F0A0
:1021400002010160006800F00200009008BD00007C
:102150000004014044380240022180F83D1001682B
:102160008A6802F00702062A03D00A6842F00102D8
:102170000A60012180F83D10002070470168CA689C
:1021800042F00102CA600068816801F00701062977
:1021900003D0016841F0010101600020704770B573
:1021A000044690F83C00012817D0012584F83C50E3
:1021B000022084F83D002068826822F0770222F431
:1021C0007F4282600868502830D00DDC20284DD036
:1021D00005DC98B310283BD148E0022070BD3028C0
:1021E00044D0402834D139E0602828D0702806D067
:1021F000B0F5805F2CD0B0F5005F29D10AE0CB6844
:10220000D1E90121206800F06FFC2068816841F06D
:10221000770109E0CB68D1E90121206800F064FC76
:102220002068816841F48041816011E0CA68496892
:10223000206800F02DFD5021206807E016E0CA68F4
:102240004968206800F035FD6021206800F056FCE8
:1022500084F83D50002084F83C0070BDCA6849688D
:10226000206800F015FD40212068EFE72268014654
:102270001046EBE7704770B50446006801694FF0FF
:102280000005C943890715D4C168C943890711D41A
:10229000E91E0161012020772068806980072046BF
:1022A00002D0FFF7E7FF04E000F0C3F8204600F09B
:1022B000FBF8257720680169C943490717D4C1682D
:1022C000C943490713D46FF004010161022020774C
:1022D0002068806910F4407F204602D0FFF7CAFFD3
:1022E00004E000F0A6F8204600F0DEF8257720682C
:1022F0000169C943090716D4C168C943090712D443
:102300006FF008010161042020772068C069800710
:10231000204602D0FFF7AEFF04E000F08AF8204626
:1023200000F0C2F8257720680169C943C90617D4AF
:10233000C168C943C90613D46FF0100101610820B8
:1023400020772068C06910F4407F204602D0FFF754
:1023500091FF04E000F06DF8204600F0A5F8257725
:1023600020680169C943C90708D1C168C943C907C1
:1023700004D1891E0161204600F098F820680169A7
:10238000C943090609D4C168C943090605D46FF0D9
:10239000800101612046FFF765FE20680169C9439D
:1023A000490609D4C168C943490605D46FF0400104
:1023B0000161204600F094F820680169C94389064C
:1023C0000BD4C168C943890607D46FF020010161AD
:1023D0002046BDE87040FFF746BE70BD70B50446AC
:1023E00090F83C0001280DD0012584F83C500220D3
:1023F00084F83D0042B1042A0AD0082A0CD00C2AE5
:1024000011D10DE0022070BD206800F07FFB0AE0D2
:10241000206800F0ABFB06E0206800F0DDFB02E086
:10242000206800F00DFC84F83D50002084F83C004A
:1024300070BD704710B5040003D094F83D0010B192
:1024400007E0012010BD002084F83C00204600F089
:102450000DF8022084F83D00211D206800F0E0FA0C
:10246000012084F83D00002010BD000008B5006880
:102470000B49884212D10B48016841F0020101600A
:102480000068002200F00200009011461D20FFF7B6
:1024900009FBBDE808401D20FFF7F6BA08BD0000A3
:1024A0000004004040380240704700001FB507A3F9
:1024B0000FCB8DE80F006846FDF7E9FE82B264237A
:1024C0006946064800F043F91FBD0000434F4E45E2
:1024D000435441444F0D0A0000000000F400002066
:1024E0007047704770B5040004D094F83900002597
:1024F00010B106E0012070BD84F83850204600F08D
:1025000023F8242084F839002068C16821F40051A0
:10251000C160204600F03EFC2068016921F4904132
:1025200001612068416921F02A0141612068C16888
:1025300041F40051C160E563202084F8390084F83B
:102540003A00002070BD000070B586B00646142128
:102550006846FDF77FFE1F493068884238D11E4823
:102560000025016841F020010160006800F02000B2
:10257000059019481438016841F0040101600068B1
:10258000694600F004000590C02000900220CDE9CB
:10259000010503200390082004901048FFF72CF950
:1025A000104C0F4820608005C4E901054FF480609D
:1025B000C4E9035080106561C4E9065025622046D5
:1025C0006562FFF777F808B1FEF725FD7463A6632F
:1025D00006B070BD001401404438024000080240BB
:1025E0002864024094010020F8B5044690F83A00AF
:1025F00020283CD1C1B3BAB394F83800012836D0B2
:10260000012084F83800A162A2850025E56322201C
:1026100084F83A00636B1748D863636B16481864F4
:10262000636B1648D864606B134605650846666B95
:10263000216802463046091DFFF7A6F820680168A8
:102640004168009184F83850C16841F48071C160DC
:102650002068416941F0010141612068416941F010
:10266000400141610020F8BDFFE70120FBE70220A7
:10267000F9E70000212D00085D2D0008D72C000887
:1026800090F83A30202B22D1F9B1F2B190F83830DD
:10269000012B1CD081628285C2850021C163222268
:1026A00080F83A2080F838100168CA6842F48072D5
:1026B000CA6001684A6942F001024A610068C16863
:1026C00041F02001C16000207047012070470220C6
:1026D0007047000010B51748184C174A0178207849
:1026E0008AB00A29115409D0401C20700AB0012276
:1026F000BDE810400F491248FFF7C2BF4FF4004138
:102700001048FFF755F9002020700B49684600F08B
:102710002FFC242269460C48FDF783FD0A49142248
:1027200010316846FDF77DFD07480FC800F01FFC1B
:102730000AB010BD02000020F401002000000020BB
:10274000F4000020000C02401402002070472DE924
:10275000F843044690F839001F4616460D462028D7
:1027600050D1B5B1AEB194F8380001284AD001205B
:1027700084F838004FF00008C4F83C80212084F829
:102780003900FFF721F9A6848146E68484F8388071
:1027900026E00120BDE8F883E08C401EE084A068BC
:1027A0004B46B0F5805F4FF000024FF080012046AD
:1027B000009703D000F082FBE8B90DE000F07EFB4B
:1027C000C8B928882168C0F308004860206908B1AA
:1027D0006D1C05E0AD1C03E0216815F8010B486095
:1027E000E08C0028D8D14B4600224021204600979B
:1027F00000F064FB08B10320CCE7202084F8390006
:102800000020C7E70220C5E7FEE700007FB50024EF
:1028100011480094019402940E490394C0E90014F5
:10282000012505618460047680F820402907C16293
:10283000C5614FF06061C460816280F830504561CD
:10284000FEF7B0FCCDE90045694603480295FEF766
:10285000E3FB7FBD002001401800002070B586B06A
:1028600014216846FDF7F6FC16480024016841F083
:1028700001010160016801F001010591016841F069
:1028800008010160016801F008010591016841F04B
:102890000401016000680C4E00F004004FF4704524
:1028A0000590002229463046FFF789F8012000955F
:1028B000CDE90104694630460394FEF79DFF06B05A
:1028C00070BD000030380240000C024010B58AB0E4
:1028D000002407941C2168460894FDF7BBFC1048AF
:1028E0000E49016042F20F71C0E9011445F25F41E7
:1028F000C0E903148461FFF79DFD079407A9084808
:102900000894FFF7B1FB00940194029400226946F9
:1029100003480494FFF762FD0AB010BD00040040B4
:102920007400002010B586B0002413480094019470
:102930000294039404940F490594016041F61F41E9
:10294000C0E9011440F2E731C0E903144461846135
:10295000FFF7D2FB4FF48050009069460648FFF71E
:102960001EFC2020CDE9040404A90348FFF77CFBEA
:1029700006B010BD00040140B4000020FEE770471F
:1029800070477047FFF726B810B592B030216846FF
:10299000FDF760FC14210CA8FDF75CFC1448002432
:1029A000016841F080510160006800F08050119092
:1029B0001048016841F4804101600068069400F409
:1029C000804011900220009001200390102004907C
:1029D0006846FFF785F90F20CDE90C040E940F949B
:1029E00000210CA81094FFF78FF812B010BD000062
:1029F00040380240007000400548016841F4700111
:102A0000016003494FF000608039086070470000A2
:102A100088ED00E00148FFF72EBC000074000020A4
:102A2000F0B50268254C264D264E274F274B4FF018
:102A3000804CA04209D0604507D0A84205D0B042E2
:102A400003D0B84201D0984204D122F0700E4A68F7
:102A500042EA0E02A0421BD0604519D0A84217D00E
:102A6000B04215D0B84213D0984211D0184DA842A8
:102A70000ED0184DA8420BD0174DA84208D0174DC4
:102A8000A84205D0164DA84202D0164DA84203D147
:102A900022F44075CA682A434D6922F080022A4315
:102AA00002608A68C2620A688262A04201D09842CB
:102AB00001D10969016301214161F0BD00000140BC
:102AC0000004004000080040000C004000040140E9
:102AD000004001400044014000480140001800400F
:102AE000001C00400020004010B5846842EA032228
:102AF00024F47F440A432243826010BD826822F09E
:102B000070020A4342F0070181607047F0B5026A23
:102B100022F001020262036A42688469124E24F0C4
:102B200073050C682C4323F002058B682B430D4D75
:102B3000A84201D0B04205D123F00807CB683B433F
:102B400023F00403A84201D0B04205D14D6922F41C
:102B5000407215438A692A4342608461496841632F
:102B60000362F0BD0000014000040140F0B5026ABC
:102B700022F010020262026A436884690D6824F43C
:102B8000E64444EA05248D6822F0200242EA051258
:102B90000F4D104EA84201D0B04206D1CF6822F0AE
:102BA000800242EA071222F04002A84201D0B0425D
:102BB00007D14D6923F4406343EA85038D6943EAF5
:102BC000850343608461496881630262F0BD00004F
:102BD0000000014000040140F0B5026A22F4807256
:102BE0000262026A4368C46922F4007224F0730529
:102BF0000C68124E2C438D6842EA05220E4DA84205
:102C000001D0B04206D1CF6822F4006242EA072226
:102C100022F48062A84201D0B04207D14D6923F46A
:102C2000405343EA05138D6943EA05134360C461C9
:102C30004968C1630262F0BD000001400004014028
:102C400030B5026A22F480520262046A4268C369A3
:102C50000D6823F4E64343EA05238D6824F4005409
:102C600044EA0534084DA84202D0084DA84204D1D8
:102C70004D6922F4804242EA85124260C36149688C
:102C80000164046230BD0000000001400004014006
:102C900010B5036A046A24F001040462846924F014
:102CA000F00444EA021423F00A020A438461026237
:102CB00010BD10B5036A23F0100303628369046A30
:102CC00023F4704343EA023224F0A00343EA0111E3
:102CD0008261016210BD70B5846B2068406994F810
:102CE0003910C0F3C0100025212904D118B1E584A2
:102CF000204600F046F82068406994F83A10C0F386
:102D00008010222904D118B1E585204600F02BF867
:102D1000E06B40F01000E0632046FFF7E2FB70BD7F
:102D200010B50146806B09680968C90513D40021F4
:102D3000C1850168CA6822F48072CA6001684A6964
:102D400022F001024A6101684A6922F040024A61A8
:102D5000202180F83A10FFF7BDFC10BD10B5806B44
:102D6000FFF7F4FC10BD0168CA6822F49072CA60D3
:102D700001684A6922F001024A61202180F83A1074
:102D800070470168CA6822F0C002CA60202180F83A
:102D9000391070472DE9F041044600680169E26886
:102DA00021F44051114301612169A068E26908439F
:102DB0006169114308432168CA6849F20C639A4368
:102DC0000243CA6020684169A26921F4407111433D
:102DD0004161E069192764253226B0F5004F354A74
:102DE000354920684FF0000806D0884201D0904253
:102DF00036D1FEF733FF35E0884201D0904202D150
:102E0000FEF72CFF01E0FEF719FF61684A18A0FBEE
:102E1000070148EB0803FDF7D3F90146B0FBF5F0D5
:102E20000201B1FBF5F06FF01803584301EB80008D
:102E300006EBC000B0FBF5F000F0F80002EB40023A
:102E4000B1FBF5F0584301EB800006EBC000B0FB8E
:102E5000F5F000F00700216810448860BDE8F081BB
:102E6000FEF7ECFE61688B0F8A00A0FB0701FDF7FF
:102E7000A7F90146B0FBF5F06FF01802504301EBE3
:102E8000800006EB0010B0FBF5F000F0F002B1FBA3
:102E9000F5F002EB0012B1FBF5F06FF018035843A8
:102EA00001EB800006EB0010B0FBF5F000F00F0026
:102EB000D1E7000000140140001001402DE9F0416D
:102EC000984617460E460446069D1DE0681C1BD01A
:102ED0002DB1FEF779FDA0EB0800A84214D92068B7
:102EE000C16821F4D071C1602068416921F00101FD
:102EF0004161202084F8390084F83A00002084F8E9
:102F000038000320BDE8F0812068006836EA000040
:102F100004D00020B842D9D00020F3E70120F9E71F
:102F2000FEE70907090E002804DB00F1E02080F825
:102F30000014704700F00F0000F1E02080F8141D2D
:102F4000704702E008C8121F08C1002AFAD1704772
:102F50007047002001E001C1121F002AFBD1704719
:102F600030380A2801D2012070470020704770478E
:102F700030B50C4605468FB012A12046FDF775F915
:102F8000B0B10EA90DA8CDE904010CAA09A90392BC
:102F900000910BAB0AA8CDE9010308AB07AA0AA16F
:102FA0002046FDF77BF9082809D000208DF818008D
:102FB000242206A92846FDF734F90FB030BD0120C0
:102FC000F4E700000A000000494E4943494F2C2510
:102FD000662C25662C25662C25662C25662C2566F8
:102FE0002C25662C25660D0A000000001CB5FEF796
:102FF000F9FCFFF7C9FCFFF731FC334800240168F6
:1030000041F4800101600068224600F480000090D5
:1030100021463820FEF746FD3820FEF735FD002218
:1030200011463920FEF73EFD3920FEF72DFDFFF752
:10303000EDFBFFF74BFC264824490C2501604FF4BB
:103040001651C0E90114C460C0E904458461C4613B
:10305000FFF748FAFFF766FC1D49009494391D48B4
:10306000019408600846FEF7CCF91948CDE90054F0
:10307000002269469438FEF7A3F9154810226946E4
:103080009438FEF79DF912484038FFF765F810486C
:1030900001221149DC38FEF7FBF80D488038FFF7B4
:1030A0006DF80B4800219438FEF7FDF90A4901221A
:1030B000891E0748FFF798FA054801220649DC38BF
:1030C000FEF7E6F8FEE70000303802400014014049
:1030D000F4000020007400400400002000061016D8
:1030E00000061016000000000000000001020304AA
:1030F000060708090000000001020304DDDDDDDD34
:10310000DCBBBBDDDDDDDDDDDDDDDDDD9888888878
:10311000888888887777777777888888855555561F
:103120006666666666666666666888888333333276
:1031300022222222222222222228888D5C3100088B
:103140000000002018000000422F00087431000821
:103150001800002020060000522F00080000000088
:10316000000000000100000010000000000000004E
:043170000024F40043
:040000050800018965
:00000001FF
